{"contracts/Raffle.sol":{"Raffle":{"abi":[{"inputs":[{"internalType":"address","name":"vrfCoordinatorV2","type":"address"},{"internalType":"uint64","name":"subscriptionId","type":"uint64"},{"internalType":"bytes32","name":"gasLane","type":"bytes32"},{"internalType":"uint256","name":"interval","type":"uint256"},{"internalType":"uint256","name":"entranceFee","type":"uint256"},{"internalType":"uint256","name":"houseFeePct","type":"uint256"},{"internalType":"uint32","name":"callbackGasLimit","type":"uint32"}],"stateMutability":"nonpayable","type":"constructor"},{"inputs":[{"internalType":"address","name":"have","type":"address"},{"internalType":"address","name":"want","type":"address"}],"name":"OnlyCoordinatorCanFulfill","type":"error"},{"inputs":[{"internalType":"address","name":"owner","type":"address"}],"name":"OwnableInvalidOwner","type":"error"},{"inputs":[{"internalType":"address","name":"account","type":"address"}],"name":"OwnableUnauthorizedAccount","type":"error"},{"inputs":[],"name":"Raffle__InvalidEntranceFee","type":"error"},{"inputs":[],"name":"Raffle__RaffleNotOpen","type":"error"},{"inputs":[],"name":"Raffle__TransferFailed","type":"error"},{"inputs":[{"internalType":"uint256","name":"raffleState","type":"uint256"}],"name":"Raffle__UnableToChangeInterval","type":"error"},{"inputs":[{"internalType":"address","name":"owner","type":"address"},{"internalType":"uint256","name":"currentBalance","type":"uint256"},{"internalType":"uint256","name":"numPlayers","type":"uint256"},{"internalType":"uint256","name":"raffleState","type":"uint256"}],"name":"Raffle__UnableToEnd","type":"error"},{"inputs":[{"internalType":"address","name":"owner","type":"address"},{"internalType":"uint256","name":"currentBalance","type":"uint256"},{"internalType":"uint256","name":"numPlayers","type":"uint256"},{"internalType":"uint256","name":"raffleState","type":"uint256"}],"name":"Raffle__UnableToRefund","type":"error"},{"inputs":[{"internalType":"address","name":"owner","type":"address"},{"internalType":"uint256","name":"currentBalance","type":"uint256"},{"internalType":"uint256","name":"numPlayers","type":"uint256"},{"internalType":"uint256","name":"raffleState","type":"uint256"}],"name":"Raffle__UnableToStart","type":"error"},{"inputs":[{"internalType":"uint256","name":"currentBalance","type":"uint256"},{"internalType":"uint256","name":"numPlayers","type":"uint256"},{"internalType":"uint256","name":"raffleState","type":"uint256"},{"internalType":"bool","name":"hasPastInterval","type":"bool"}],"name":"Raffle__UpkeepNotNeeded","type":"error"},{"anonymous":false,"inputs":[{"indexed":true,"internalType":"address","name":"previousOwner","type":"address"},{"indexed":true,"internalType":"address","name":"newOwner","type":"address"}],"name":"OwnershipTransferred","type":"event"},{"anonymous":false,"inputs":[{"indexed":true,"internalType":"enum Raffle.RaffleState","name":"newState","type":"uint8"}],"name":"RaffleEnd","type":"event"},{"anonymous":false,"inputs":[{"indexed":true,"internalType":"address","name":"player","type":"address"}],"name":"RaffleEnter","type":"event"},{"anonymous":false,"inputs":[{"indexed":true,"internalType":"uint256","name":"timestamp","type":"uint256"}],"name":"RaffleReset","type":"event"},{"anonymous":false,"inputs":[{"indexed":true,"internalType":"uint256","name":"requestId","type":"uint256"}],"name":"RequestedRaffleWinner","type":"event"},{"anonymous":false,"inputs":[{"indexed":true,"internalType":"address","name":"player","type":"address"}],"name":"WinnerPicked","type":"event"},{"inputs":[{"internalType":"uint256","name":"newInterval","type":"uint256"}],"name":"changeInterval","outputs":[],"stateMutability":"nonpayable","type":"function"},{"inputs":[{"internalType":"bytes","name":"","type":"bytes"}],"name":"checkUpkeep","outputs":[{"internalType":"bool","name":"upkeepNeeded","type":"bool"},{"internalType":"bytes","name":"","type":"bytes"}],"stateMutability":"view","type":"function"},{"inputs":[],"name":"endRaffle","outputs":[],"stateMutability":"nonpayable","type":"function"},{"inputs":[],"name":"enterRaffle","outputs":[],"stateMutability":"payable","type":"function"},{"inputs":[],"name":"getEntranceFee","outputs":[{"internalType":"uint256","name":"","type":"uint256"}],"stateMutability":"view","type":"function"},{"inputs":[],"name":"getHouseFee","outputs":[{"internalType":"uint256","name":"","type":"uint256"}],"stateMutability":"view","type":"function"},{"inputs":[],"name":"getInterval","outputs":[{"internalType":"uint256","name":"","type":"uint256"}],"stateMutability":"view","type":"function"},{"inputs":[],"name":"getLastTimeStamp","outputs":[{"internalType":"uint256","name":"","type":"uint256"}],"stateMutability":"view","type":"function"},{"inputs":[],"name":"getNumOfUniquePlayers","outputs":[{"internalType":"uint256","name":"","type":"uint256"}],"stateMutability":"view","type":"function"},{"inputs":[],"name":"getNumWords","outputs":[{"internalType":"uint256","name":"","type":"uint256"}],"stateMutability":"pure","type":"function"},{"inputs":[],"name":"getNumberOfTickets","outputs":[{"internalType":"uint256","name":"","type":"uint256"}],"stateMutability":"view","type":"function"},{"inputs":[{"internalType":"uint256","name":"index","type":"uint256"}],"name":"getPlayer","outputs":[{"internalType":"address","name":"","type":"address"}],"stateMutability":"view","type":"function"},{"inputs":[],"name":"getPlayers","outputs":[{"internalType":"address[]","name":"","type":"address[]"}],"stateMutability":"view","type":"function"},{"inputs":[],"name":"getRaffleState","outputs":[{"internalType":"enum Raffle.RaffleState","name":"","type":"uint8"}],"stateMutability":"view","type":"function"},{"inputs":[],"name":"getRecentWinner","outputs":[{"internalType":"address","name":"","type":"address"}],"stateMutability":"view","type":"function"},{"inputs":[],"name":"getRecentWinningAmount","outputs":[{"internalType":"uint256","name":"","type":"uint256"}],"stateMutability":"view","type":"function"},{"inputs":[],"name":"getRequestConfirmations","outputs":[{"internalType":"uint256","name":"","type":"uint256"}],"stateMutability":"pure","type":"function"},{"inputs":[{"internalType":"address","name":"player","type":"address"}],"name":"getTicketsEnteredByPlayer","outputs":[{"internalType":"uint256","name":"","type":"uint256"}],"stateMutability":"view","type":"function"},{"inputs":[],"name":"owner","outputs":[{"internalType":"address","name":"","type":"address"}],"stateMutability":"view","type":"function"},{"inputs":[{"internalType":"bytes","name":"","type":"bytes"}],"name":"performUpkeep","outputs":[],"stateMutability":"nonpayable","type":"function"},{"inputs":[{"internalType":"uint256","name":"requestId","type":"uint256"},{"internalType":"uint256[]","name":"randomWords","type":"uint256[]"}],"name":"rawFulfillRandomWords","outputs":[],"stateMutability":"nonpayable","type":"function"},{"inputs":[],"name":"refundAll","outputs":[],"stateMutability":"nonpayable","type":"function"},{"inputs":[],"name":"renounceOwnership","outputs":[],"stateMutability":"nonpayable","type":"function"},{"inputs":[],"name":"startRaffle","outputs":[],"stateMutability":"nonpayable","type":"function"},{"inputs":[{"internalType":"address","name":"newOwner","type":"address"}],"name":"transferOwnership","outputs":[],"stateMutability":"nonpayable","type":"function"}],"devdoc":{"author":"Zheng Zuo","details":"This implements the Chainlink VRF V2","errors":{"OwnableInvalidOwner(address)":[{"details":"The owner is not a valid owner account. (eg. `address(0)`)"}],"OwnableUnauthorizedAccount(address)":[{"details":"The caller account is not authorized to perform an operation."}]},"kind":"dev","methods":{"checkUpkeep(bytes)":{"details":"This is the function that the Chainlink Keeper nodes call they look for `upkeepNeeded` to return True. the following should be true for this to return true: 1. The time interval has passed between raffle runs. 2. The lottery is open. 3. The contract has ETH. 4. Implicity, your subscription is funded with LINK."},"owner()":{"details":"Returns the address of the current owner."},"performUpkeep(bytes)":{"details":"Once `checkUpkeep` is returning `true`, this function is called and it kicks off a Chainlink VRF call to get a random winner."},"renounceOwnership()":{"details":"Leaves the contract without owner. It will not be possible to call `onlyOwner` functions. Can only be called by the current owner. NOTE: Renouncing ownership will leave the contract without an owner, thereby disabling any functionality that is only available to the owner."},"transferOwnership(address)":{"details":"Transfers ownership of the contract to a new account (`newOwner`). Can only be called by the current owner."}},"title":"Raffle Contract","version":1},"evm":{"bytecode":{"linkReferences":{},"object":"6101606040523480156200001257600080fd5b5060405162002f7a38038062002f7a8339818101604052810190620000389190620003e8565b8633600073ffffffffffffffffffffffffffffffffffffffff168173ffffffffffffffffffffffffffffffffffffffff1603620000af5760006040517f1e4fbdf7000000000000000000000000000000000000000000000000000000008152600401620000a69190620004ac565b60405180910390fd5b620000c081620001be60201b60201c565b508073ffffffffffffffffffffffffffffffffffffffff1660808173ffffffffffffffffffffffffffffffffffffffff1681525050508673ffffffffffffffffffffffffffffffffffffffff1660a08173ffffffffffffffffffffffffffffffffffffffff16815250508567ffffffffffffffff1660c08167ffffffffffffffff16815250508460e08181525050836001819055508261012081815250508161014081815250508063ffffffff166101008163ffffffff16815250506000600660006101000a81548160ff02191690836002811115620001a557620001a4620004c9565b5b02179055504260028190555050505050505050620004f8565b60008060009054906101000a900473ffffffffffffffffffffffffffffffffffffffff169050816000806101000a81548173ffffffffffffffffffffffffffffffffffffffff021916908373ffffffffffffffffffffffffffffffffffffffff1602179055508173ffffffffffffffffffffffffffffffffffffffff168173ffffffffffffffffffffffffffffffffffffffff167f8be0079c531659141344cd1fd0a4f28419497f9722a3daafe3b4186f6b6457e060405160405180910390a35050565b600080fd5b600073ffffffffffffffffffffffffffffffffffffffff82169050919050565b6000620002b48262000287565b9050919050565b620002c681620002a7565b8114620002d257600080fd5b50565b600081519050620002e681620002bb565b92915050565b600067ffffffffffffffff82169050919050565b6200030b81620002ec565b81146200031757600080fd5b50565b6000815190506200032b8162000300565b92915050565b6000819050919050565b620003468162000331565b81146200035257600080fd5b50565b60008151905062000366816200033b565b92915050565b6000819050919050565b62000381816200036c565b81146200038d57600080fd5b50565b600081519050620003a18162000376565b92915050565b600063ffffffff82169050919050565b620003c281620003a7565b8114620003ce57600080fd5b50565b600081519050620003e281620003b7565b92915050565b600080600080600080600060e0888a0312156200040a576200040962000282565b5b60006200041a8a828b01620002d5565b97505060206200042d8a828b016200031a565b9650506040620004408a828b0162000355565b9550506060620004538a828b0162000390565b9450506080620004668a828b0162000390565b93505060a0620004798a828b0162000390565b92505060c06200048c8a828b01620003d1565b91505092959891949750929550565b620004a681620002a7565b82525050565b6000602082019050620004c360008301846200049b565b92915050565b7f4e487b7100000000000000000000000000000000000000000000000000000000600052602160045260246000fd5b60805160a05160c05160e051610100516101205161014051612a0462000576600039600081816114030152611ba90152600081816105600152818161078a0152818161085c0152610c18015260006112c30152600061127f015260006112a00152600061124301526000818161059d01526105f10152612a046000f3fe6080604052600436106101665760003560e01c806363c75607116100d157806391ad27b41161008a578063e55ae4e811610064578063e55ae4e8146104b4578063ee095c0e146104f1578063f2fde38b14610508578063f57f01801461053157610166565b806391ad27b4146104335780639582260a1461045e578063c1c244e81461048957610166565b806363c7560714610334578063697237f61461035d5780636e04ff0d14610388578063715018a6146103c65780638b5b9ccc146103dd5780638da5cb5b1461040857610166565b80634585e33b116101235780634585e33b14610222578063473f1ddc1461024b5780634d6ea85d1461027657806353a2c19a146102b357806354d2a34a146102de5780635f1b0fd81461030957610166565b806309bc33a71461016b578063115cbaf5146101965780631fe543e3146101c1578063242284f1146101ea5780632cfcc5391461020157806338e771ab1461020b575b600080fd5b34801561017757600080fd5b5061018061055c565b60405161018d9190611f13565b60405180910390f35b3480156101a257600080fd5b506101ab610584565b6040516101b89190611fa5565b60405180910390f35b3480156101cd57600080fd5b506101e860048036038101906101e39190612159565b61059b565b005b3480156101f657600080fd5b506101ff61065b565b005b610209610786565b005b34801561021757600080fd5b50610220610a68565b005b34801561022e57600080fd5b5061024960048036038101906102449190612210565b610e95565b005b34801561025757600080fd5b5061026061137d565b60405161026d919061229e565b60405180910390f35b34801561028257600080fd5b5061029d600480360381019061029891906122e5565b6113a7565b6040516102aa9190611f13565b60405180910390f35b3480156102bf57600080fd5b506102c86113f0565b6040516102d59190611f13565b60405180910390f35b3480156102ea57600080fd5b506102f36113ff565b6040516103009190611f13565b60405180910390f35b34801561031557600080fd5b5061031e611427565b60405161032b9190611f13565b60405180910390f35b34801561034057600080fd5b5061035b60048036038101906103569190612312565b611434565b005b34801561036957600080fd5b506103726114de565b60405161037f9190611f13565b60405180910390f35b34801561039457600080fd5b506103af60048036038101906103aa91906123f4565b6114e8565b6040516103bd9291906124d7565b60405180910390f35b3480156103d257600080fd5b506103db61158a565b005b3480156103e957600080fd5b506103f261159e565b6040516103ff91906125c5565b60405180910390f35b34801561041457600080fd5b5061041d61162c565b60405161042a919061229e565b60405180910390f35b34801561043f57600080fd5b50610448611655565b6040516104559190611f13565b60405180910390f35b34801561046a57600080fd5b5061047361165f565b6040516104809190611f13565b60405180910390f35b34801561049557600080fd5b5061049e61166c565b6040516104ab9190611f13565b60405180910390f35b3480156104c057600080fd5b506104db60048036038101906104d69190612312565b611676565b6040516104e8919061229e565b60405180910390f35b3480156104fd57600080fd5b506105066116be565b005b34801561051457600080fd5b5061052f600480360381019061052a91906122e5565b611802565b005b34801561053d57600080fd5b50610546611888565b6040516105539190611f13565b60405180910390f35b60007f0000000000000000000000000000000000000000000000000000000000000000905090565b6000600660009054906101000a900460ff16905090565b7f000000000000000000000000000000000000000000000000000000000000000073ffffffffffffffffffffffffffffffffffffffff163373ffffffffffffffffffffffffffffffffffffffff161461064d57337f00000000000000000000000000000000000000000000000000000000000000006040517f1cf993f40000000000000000000000000000000000000000000000000000000081526004016106449291906125e7565b60405180910390fd5b6106578282611892565b5050565b610663611c58565b60028081111561067657610675611f2e565b5b600660009054906101000a900460ff16600281111561069857610697611f2e565b5b1415806106aa57506000600580549050115b806106b55750600047115b15610723573347600580549050600660009054906101000a900460ff1660028111156106e4576106e3611f2e565b5b6040517f989584f800000000000000000000000000000000000000000000000000000000815260040161071a9493929190612610565b60405180910390fd5b6000600660006101000a81548160ff0219169083600281111561074957610748611f2e565b5b0217905550426002819055506002547f55474e5a13c390e9594ab9c0e33694ad0c2027fa1555c1cb83c9012e6a464ba760405160405180910390a2565b60007f0000000000000000000000000000000000000000000000000000000000000000346107b49190612684565b146107eb576040517fa11b52c900000000000000000000000000000000000000000000000000000000815260040160405180910390fd5b600060028111156107ff576107fe611f2e565b5b600660009054906101000a900460ff16600281111561082157610820611f2e565b5b14610858576040517fd24a271400000000000000000000000000000000000000000000000000000000815260040160405180910390fd5b60007f00000000000000000000000000000000000000000000000000000000000000003461088691906126e4565b905080600760003373ffffffffffffffffffffffffffffffffffffffff1673ffffffffffffffffffffffffffffffffffffffff16815260200190815260200160002060008282546108d79190612715565b92505081905550600860003373ffffffffffffffffffffffffffffffffffffffff1673ffffffffffffffffffffffffffffffffffffffff16815260200190815260200160002060009054906101000a900460ff166109a0576001600860003373ffffffffffffffffffffffffffffffffffffffff1673ffffffffffffffffffffffffffffffffffffffff16815260200190815260200160002060006101000a81548160ff0219169083151502179055506009600081548092919061099a90612749565b91905055505b60005b81811015610a21576005339080600181540180825580915050600190039060005260206000200160009091909190916101000a81548173ffffffffffffffffffffffffffffffffffffffff021916908373ffffffffffffffffffffffffffffffffffffffff1602179055508080610a1990612749565b9150506109a3565b503373ffffffffffffffffffffffffffffffffffffffff167f0805e1d667bddb8a95f0f09880cf94f403fb596ce79928d9f29b74203ba284d460405160405180910390a250565b610a70611c58565b60016002811115610a8457610a83611f2e565b5b600660009054906101000a900460ff166002811115610aa657610aa5611f2e565b5b141580610ab857506000600580549050145b80610ac35750600047145b15610b31573347600580549050600660009054906101000a900460ff166002811115610af257610af1611f2e565b5b6040517f92055084000000000000000000000000000000000000000000000000000000008152600401610b289493929190612610565b60405180910390fd5b60005b600580549050811015610db1576008600060058381548110610b5957610b58612791565b5b9060005260206000200160009054906101000a900473ffffffffffffffffffffffffffffffffffffffff1673ffffffffffffffffffffffffffffffffffffffff1673ffffffffffffffffffffffffffffffffffffffff16815260200190815260200160002060009054906101000a900460ff1615610d9e57600060058281548110610be757610be6612791565b5b9060005260206000200160009054906101000a900473ffffffffffffffffffffffffffffffffffffffff16905060007f0000000000000000000000000000000000000000000000000000000000000000600760008473ffffffffffffffffffffffffffffffffffffffff1673ffffffffffffffffffffffffffffffffffffffff16815260200190815260200160002054610c8191906127c0565b9050610c8d8282611cdf565b6008600060058581548110610ca557610ca4612791565b5b9060005260206000200160009054906101000a900473ffffffffffffffffffffffffffffffffffffffff1673ffffffffffffffffffffffffffffffffffffffff1673ffffffffffffffffffffffffffffffffffffffff16815260200190815260200160002060006101000a81549060ff02191690556007600060058581548110610d3257610d31612791565b5b9060005260206000200160009054906101000a900473ffffffffffffffffffffffffffffffffffffffff1673ffffffffffffffffffffffffffffffffffffffff1673ffffffffffffffffffffffffffffffffffffffff1681526020019081526020016000206000905550505b8080610da990612749565b915050610b34565b50600067ffffffffffffffff811115610dcd57610dcc612016565b5b604051908082528060200260200182016040528015610dfb5781602001602082028036833780820191505090505b5060059080519060200190610e11929190611e53565b5060006009819055506002600660006101000a81548160ff02191690836002811115610e4057610e3f611f2e565b5b0217905550600660009054906101000a900460ff166002811115610e6757610e66611f2e565b5b7fe80780b6efdb52ab57a7f583fdfc286b925caddda150dca6a95baa3f0cfb591c60405160405180910390a2565b6000610eaf604051806020016040528060008152506114e8565b50905080610f315747600580549050600660009054906101000a900460ff166002811115610ee057610edf611f2e565b5b60015460025442610ef19190612802565b116040517fa8dbacda000000000000000000000000000000000000000000000000000000008152600401610f289493929190612836565b60405180910390fd5b600060058054905003610f7a57426002819055506002547f55474e5a13c390e9594ab9c0e33694ad0c2027fa1555c1cb83c9012e6a464ba760405160405180910390a250611379565b6001600660006101000a81548160ff02191690836002811115610fa057610f9f611f2e565b5b021790555060016009540361123f576005600081548110610fc457610fc3612791565b5b9060005260206000200160009054906101000a900473ffffffffffffffffffffffffffffffffffffffff16600360006101000a81548173ffffffffffffffffffffffffffffffffffffffff021916908373ffffffffffffffffffffffffffffffffffffffff16021790555060086000600360009054906101000a900473ffffffffffffffffffffffffffffffffffffffff1673ffffffffffffffffffffffffffffffffffffffff1673ffffffffffffffffffffffffffffffffffffffff16815260200190815260200160002060006101000a81549060ff021916905560076000600360009054906101000a900473ffffffffffffffffffffffffffffffffffffffff1673ffffffffffffffffffffffffffffffffffffffff1673ffffffffffffffffffffffffffffffffffffffff16815260200190815260200160002060009055600067ffffffffffffffff8111156111205761111f612016565b5b60405190808252806020026020018201604052801561114e5781602001602082028036833780820191505090505b5060059080519060200190611164929190611e53565b5060006009819055506000600660006101000a81548160ff0219169083600281111561119357611192611f2e565b5b021790555042600281905550476004819055506111d4600360009054906101000a900473ffffffffffffffffffffffffffffffffffffffff16600454611cdf565b600360009054906101000a900473ffffffffffffffffffffffffffffffffffffffff1673ffffffffffffffffffffffffffffffffffffffff167f5b690ec4a06fe979403046eaeea5b3ce38524683c3001f662c8b5a829632f7df60405160405180910390a250611379565b60007f000000000000000000000000000000000000000000000000000000000000000073ffffffffffffffffffffffffffffffffffffffff16635d3b1d307f00000000000000000000000000000000000000000000000000000000000000007f000000000000000000000000000000000000000000000000000000000000000060037f000000000000000000000000000000000000000000000000000000000000000060016040518663ffffffff1660e01b81526004016113049594939291906128f3565b6020604051808303816000875af1158015611323573d6000803e3d6000fd5b505050506040513d601f19601f82011682018060405250810190611347919061295b565b9050807fcd6e45c8998311cab7e9d4385596cac867e20a0587194b954fa3a731c93ce78b60405160405180910390a250505b5050565b6000600360009054906101000a900473ffffffffffffffffffffffffffffffffffffffff16905090565b6000600760008373ffffffffffffffffffffffffffffffffffffffff1673ffffffffffffffffffffffffffffffffffffffff168152602001908152602001600020549050919050565b6000600163ffffffff16905090565b60007f0000000000000000000000000000000000000000000000000000000000000000905090565b6000600361ffff16905090565b61143c611c58565b60028081111561144f5761144e611f2e565b5b600660009054906101000a900460ff16600281111561147157611470611f2e565b5b146114d457600660009054906101000a900460ff16600281111561149857611497611f2e565b5b6040517f66bd08c50000000000000000000000000000000000000000000000000000000081526004016114cb9190611f13565b60405180910390fd5b8060018190555050565b6000600454905090565b60006060600080600281111561150157611500611f2e565b5b600660009054906101000a900460ff16600281111561152357611522611f2e565b5b1490506000600154600254426115399190612802565b1190508180156115465750805b9350836040518060400160405280600381526020017f3078300000000000000000000000000000000000000000000000000000000000815250935093505050915091565b611592611c58565b61159c6000611d87565b565b6060600580548060200260200160405190810160405280929190818152602001828054801561162257602002820191906000526020600020905b8160009054906101000a900473ffffffffffffffffffffffffffffffffffffffff1673ffffffffffffffffffffffffffffffffffffffff16815260200190600101908083116115d8575b5050505050905090565b60008060009054906101000a900473ffffffffffffffffffffffffffffffffffffffff16905090565b6000600154905090565b6000600580549050905090565b6000600254905090565b60006005828154811061168c5761168b612791565b5b9060005260206000200160009054906101000a900473ffffffffffffffffffffffffffffffffffffffff169050919050565b6116c6611c58565b600060028111156116da576116d9611f2e565b5b600660009054906101000a900460ff1660028111156116fc576116fb611f2e565b5b14158061170e57506000600580549050115b806117195750600047115b15611787573347600580549050600660009054906101000a900460ff16600281111561174857611747611f2e565b5b6040517f760415b500000000000000000000000000000000000000000000000000000000815260040161177e9493929190612610565b60405180910390fd5b6002600660006101000a81548160ff021916908360028111156117ad576117ac611f2e565b5b0217905550600660009054906101000a900460ff1660028111156117d4576117d3611f2e565b5b7fe80780b6efdb52ab57a7f583fdfc286b925caddda150dca6a95baa3f0cfb591c60405160405180910390a2565b61180a611c58565b600073ffffffffffffffffffffffffffffffffffffffff168173ffffffffffffffffffffffffffffffffffffffff160361187c5760006040517f1e4fbdf7000000000000000000000000000000000000000000000000000000008152600401611873919061229e565b60405180910390fd5b61188581611d87565b50565b6000600954905090565b6000600580549050826000815181106118ae576118ad612791565b5b60200260200101516118c09190612684565b90506000600582815481106118d8576118d7612791565b5b9060005260206000200160009054906101000a900473ffffffffffffffffffffffffffffffffffffffff16905080600360006101000a81548173ffffffffffffffffffffffffffffffffffffffff021916908373ffffffffffffffffffffffffffffffffffffffff16021790555060005b600580549050811015611b0857600860006005838154811061196e5761196d612791565b5b9060005260206000200160009054906101000a900473ffffffffffffffffffffffffffffffffffffffff1673ffffffffffffffffffffffffffffffffffffffff1673ffffffffffffffffffffffffffffffffffffffff16815260200190815260200160002060009054906101000a900460ff1615611af55760086000600583815481106119fe576119fd612791565b5b9060005260206000200160009054906101000a900473ffffffffffffffffffffffffffffffffffffffff1673ffffffffffffffffffffffffffffffffffffffff1673ffffffffffffffffffffffffffffffffffffffff16815260200190815260200160002060006101000a81549060ff02191690556007600060058381548110611a8b57611a8a612791565b5b9060005260206000200160009054906101000a900473ffffffffffffffffffffffffffffffffffffffff1673ffffffffffffffffffffffffffffffffffffffff1673ffffffffffffffffffffffffffffffffffffffff168152602001908152602001600020600090555b8080611b0090612749565b915050611949565b50600067ffffffffffffffff811115611b2457611b23612016565b5b604051908082528060200260200182016040528015611b525781602001602082028036833780820191505090505b5060059080519060200190611b68929190611e53565b5060006009819055506000600660006101000a81548160ff02191690836002811115611b9757611b96611f2e565b5b021790555042600281905550600060647f000000000000000000000000000000000000000000000000000000000000000047611bd391906127c0565b611bdd91906126e4565b90508047611beb9190612802565b600481905550611c02611bfc61162c565b82611cdf565b611c0e82600454611cdf565b8173ffffffffffffffffffffffffffffffffffffffff167f5b690ec4a06fe979403046eaeea5b3ce38524683c3001f662c8b5a829632f7df60405160405180910390a25050505050565b611c60611e4b565b73ffffffffffffffffffffffffffffffffffffffff16611c7e61162c565b73ffffffffffffffffffffffffffffffffffffffff1614611cdd57611ca1611e4b565b6040517f118cdaa7000000000000000000000000000000000000000000000000000000008152600401611cd4919061229e565b60405180910390fd5b565b60008273ffffffffffffffffffffffffffffffffffffffff1682604051611d05906129b9565b60006040518083038185875af1925050503d8060008114611d42576040519150601f19603f3d011682016040523d82523d6000602084013e611d47565b606091505b5050905080611d82576040517fa1d04b3900000000000000000000000000000000000000000000000000000000815260040160405180910390fd5b505050565b60008060009054906101000a900473ffffffffffffffffffffffffffffffffffffffff169050816000806101000a81548173ffffffffffffffffffffffffffffffffffffffff021916908373ffffffffffffffffffffffffffffffffffffffff1602179055508173ffffffffffffffffffffffffffffffffffffffff168173ffffffffffffffffffffffffffffffffffffffff167f8be0079c531659141344cd1fd0a4f28419497f9722a3daafe3b4186f6b6457e060405160405180910390a35050565b600033905090565b828054828255906000526020600020908101928215611ecc579160200282015b82811115611ecb5782518260006101000a81548173ffffffffffffffffffffffffffffffffffffffff021916908373ffffffffffffffffffffffffffffffffffffffff16021790555091602001919060010190611e73565b5b509050611ed99190611edd565b5090565b5b80821115611ef6576000816000905550600101611ede565b5090565b6000819050919050565b611f0d81611efa565b82525050565b6000602082019050611f286000830184611f04565b92915050565b7f4e487b7100000000000000000000000000000000000000000000000000000000600052602160045260246000fd5b60038110611f6e57611f6d611f2e565b5b50565b6000819050611f7f82611f5d565b919050565b6000611f8f82611f71565b9050919050565b611f9f81611f84565b82525050565b6000602082019050611fba6000830184611f96565b92915050565b6000604051905090565b600080fd5b600080fd5b611fdd81611efa565b8114611fe857600080fd5b50565b600081359050611ffa81611fd4565b92915050565b600080fd5b6000601f19601f8301169050919050565b7f4e487b7100000000000000000000000000000000000000000000000000000000600052604160045260246000fd5b61204e82612005565b810181811067ffffffffffffffff8211171561206d5761206c612016565b5b80604052505050565b6000612080611fc0565b905061208c8282612045565b919050565b600067ffffffffffffffff8211156120ac576120ab612016565b5b602082029050602081019050919050565b600080fd5b60006120d56120d084612091565b612076565b905080838252602082019050602084028301858111156120f8576120f76120bd565b5b835b81811015612121578061210d8882611feb565b8452602084019350506020810190506120fa565b5050509392505050565b600082601f8301126121405761213f612000565b5b81356121508482602086016120c2565b91505092915050565b600080604083850312156121705761216f611fca565b5b600061217e85828601611feb565b925050602083013567ffffffffffffffff81111561219f5761219e611fcf565b5b6121ab8582860161212b565b9150509250929050565b600080fd5b60008083601f8401126121d0576121cf612000565b5b8235905067ffffffffffffffff8111156121ed576121ec6121b5565b5b602083019150836001820283011115612209576122086120bd565b5b9250929050565b6000806020838503121561222757612226611fca565b5b600083013567ffffffffffffffff81111561224557612244611fcf565b5b612251858286016121ba565b92509250509250929050565b600073ffffffffffffffffffffffffffffffffffffffff82169050919050565b60006122888261225d565b9050919050565b6122988161227d565b82525050565b60006020820190506122b3600083018461228f565b92915050565b6122c28161227d565b81146122cd57600080fd5b50565b6000813590506122df816122b9565b92915050565b6000602082840312156122fb576122fa611fca565b5b6000612309848285016122d0565b91505092915050565b60006020828403121561232857612327611fca565b5b600061233684828501611feb565b91505092915050565b600080fd5b600067ffffffffffffffff82111561235f5761235e612016565b5b61236882612005565b9050602081019050919050565b82818337600083830152505050565b600061239761239284612344565b612076565b9050828152602081018484840111156123b3576123b261233f565b5b6123be848285612375565b509392505050565b600082601f8301126123db576123da612000565b5b81356123eb848260208601612384565b91505092915050565b60006020828403121561240a57612409611fca565b5b600082013567ffffffffffffffff81111561242857612427611fcf565b5b612434848285016123c6565b91505092915050565b60008115159050919050565b6124528161243d565b82525050565b600081519050919050565b600082825260208201905092915050565b60005b83811015612492578082015181840152602081019050612477565b60008484015250505050565b60006124a982612458565b6124b38185612463565b93506124c3818560208601612474565b6124cc81612005565b840191505092915050565b60006040820190506124ec6000830185612449565b81810360208301526124fe818461249e565b90509392505050565b600081519050919050565b600082825260208201905092915050565b6000819050602082019050919050565b61253c8161227d565b82525050565b600061254e8383612533565b60208301905092915050565b6000602082019050919050565b600061257282612507565b61257c8185612512565b935061258783612523565b8060005b838110156125b857815161259f8882612542565b97506125aa8361255a565b92505060018101905061258b565b5085935050505092915050565b600060208201905081810360008301526125df8184612567565b905092915050565b60006040820190506125fc600083018561228f565b612609602083018461228f565b9392505050565b6000608082019050612625600083018761228f565b6126326020830186611f04565b61263f6040830185611f04565b61264c6060830184611f04565b95945050505050565b7f4e487b7100000000000000000000000000000000000000000000000000000000600052601260045260246000fd5b600061268f82611efa565b915061269a83611efa565b9250826126aa576126a9612655565b5b828206905092915050565b7f4e487b7100000000000000000000000000000000000000000000000000000000600052601160045260246000fd5b60006126ef82611efa565b91506126fa83611efa565b92508261270a57612709612655565b5b828204905092915050565b600061272082611efa565b915061272b83611efa565b9250828201905080821115612743576127426126b5565b5b92915050565b600061275482611efa565b91507fffffffffffffffffffffffffffffffffffffffffffffffffffffffffffffffff8203612786576127856126b5565b5b600182019050919050565b7f4e487b7100000000000000000000000000000000000000000000000000000000600052603260045260246000fd5b60006127cb82611efa565b91506127d683611efa565b92508282026127e481611efa565b915082820484148315176127fb576127fa6126b5565b5b5092915050565b600061280d82611efa565b915061281883611efa565b92508282039050818111156128305761282f6126b5565b5b92915050565b600060808201905061284b6000830187611f04565b6128586020830186611f04565b6128656040830185611f04565b6128726060830184612449565b95945050505050565b6000819050919050565b61288e8161287b565b82525050565b600067ffffffffffffffff82169050919050565b6128b181612894565b82525050565b600061ffff82169050919050565b6128ce816128b7565b82525050565b600063ffffffff82169050919050565b6128ed816128d4565b82525050565b600060a0820190506129086000830188612885565b61291560208301876128a8565b61292260408301866128c5565b61292f60608301856128e4565b61293c60808301846128e4565b9695505050505050565b60008151905061295581611fd4565b92915050565b60006020828403121561297157612970611fca565b5b600061297f84828501612946565b91505092915050565b600081905092915050565b50565b60006129a3600083612988565b91506129ae82612993565b600082019050919050565b60006129c482612996565b915081905091905056fea264697066735822122030f1bf005c10dc1f64956f529505b6f2821c8ae2480ea0b0ad51a7a4b88be23964736f6c63430008140033","opcodes":"PUSH2 0x160 PUSH1 0x40 MSTORE CALLVALUE DUP1 ISZERO PUSH3 0x12 JUMPI PUSH1 0x0 DUP1 REVERT JUMPDEST POP PUSH1 0x40 MLOAD PUSH3 0x2F7A CODESIZE SUB DUP1 PUSH3 0x2F7A DUP4 CODECOPY DUP2 DUP2 ADD PUSH1 0x40 MSTORE DUP2 ADD SWAP1 PUSH3 0x38 SWAP2 SWAP1 PUSH3 0x3E8 JUMP JUMPDEST DUP7 CALLER PUSH1 0x0 PUSH20 0xFFFFFFFFFFFFFFFFFFFFFFFFFFFFFFFFFFFFFFFF AND DUP2 PUSH20 0xFFFFFFFFFFFFFFFFFFFFFFFFFFFFFFFFFFFFFFFF AND SUB PUSH3 0xAF JUMPI PUSH1 0x0 PUSH1 0x40 MLOAD PUSH32 0x1E4FBDF700000000000000000000000000000000000000000000000000000000 DUP2 MSTORE PUSH1 0x4 ADD PUSH3 0xA6 SWAP2 SWAP1 PUSH3 0x4AC JUMP JUMPDEST PUSH1 0x40 MLOAD DUP1 SWAP2 SUB SWAP1 REVERT JUMPDEST PUSH3 0xC0 DUP2 PUSH3 0x1BE PUSH1 0x20 SHL PUSH1 0x20 SHR JUMP JUMPDEST POP DUP1 PUSH20 0xFFFFFFFFFFFFFFFFFFFFFFFFFFFFFFFFFFFFFFFF AND PUSH1 0x80 DUP2 PUSH20 0xFFFFFFFFFFFFFFFFFFFFFFFFFFFFFFFFFFFFFFFF AND DUP2 MSTORE POP POP POP DUP7 PUSH20 0xFFFFFFFFFFFFFFFFFFFFFFFFFFFFFFFFFFFFFFFF AND PUSH1 0xA0 DUP2 PUSH20 0xFFFFFFFFFFFFFFFFFFFFFFFFFFFFFFFFFFFFFFFF AND DUP2 MSTORE POP POP DUP6 PUSH8 0xFFFFFFFFFFFFFFFF AND PUSH1 0xC0 DUP2 PUSH8 0xFFFFFFFFFFFFFFFF AND DUP2 MSTORE POP POP DUP5 PUSH1 0xE0 DUP2 DUP2 MSTORE POP POP DUP4 PUSH1 0x1 DUP2 SWAP1 SSTORE POP DUP3 PUSH2 0x120 DUP2 DUP2 MSTORE POP POP DUP2 PUSH2 0x140 DUP2 DUP2 MSTORE POP POP DUP1 PUSH4 0xFFFFFFFF AND PUSH2 0x100 DUP2 PUSH4 0xFFFFFFFF AND DUP2 MSTORE POP POP PUSH1 0x0 PUSH1 0x6 PUSH1 0x0 PUSH2 0x100 EXP DUP2 SLOAD DUP2 PUSH1 0xFF MUL NOT AND SWAP1 DUP4 PUSH1 0x2 DUP2 GT ISZERO PUSH3 0x1A5 JUMPI PUSH3 0x1A4 PUSH3 0x4C9 JUMP JUMPDEST JUMPDEST MUL OR SWAP1 SSTORE POP TIMESTAMP PUSH1 0x2 DUP2 SWAP1 SSTORE POP POP POP POP POP POP POP POP PUSH3 0x4F8 JUMP JUMPDEST PUSH1 0x0 DUP1 PUSH1 0x0 SWAP1 SLOAD SWAP1 PUSH2 0x100 EXP SWAP1 DIV PUSH20 0xFFFFFFFFFFFFFFFFFFFFFFFFFFFFFFFFFFFFFFFF AND SWAP1 POP DUP2 PUSH1 0x0 DUP1 PUSH2 0x100 EXP DUP2 SLOAD DUP2 PUSH20 0xFFFFFFFFFFFFFFFFFFFFFFFFFFFFFFFFFFFFFFFF MUL NOT AND SWAP1 DUP4 PUSH20 0xFFFFFFFFFFFFFFFFFFFFFFFFFFFFFFFFFFFFFFFF AND MUL OR SWAP1 SSTORE POP DUP2 PUSH20 0xFFFFFFFFFFFFFFFFFFFFFFFFFFFFFFFFFFFFFFFF AND DUP2 PUSH20 0xFFFFFFFFFFFFFFFFFFFFFFFFFFFFFFFFFFFFFFFF AND PUSH32 0x8BE0079C531659141344CD1FD0A4F28419497F9722A3DAAFE3B4186F6B6457E0 PUSH1 0x40 MLOAD PUSH1 0x40 MLOAD DUP1 SWAP2 SUB SWAP1 LOG3 POP POP JUMP JUMPDEST PUSH1 0x0 DUP1 REVERT JUMPDEST PUSH1 0x0 PUSH20 0xFFFFFFFFFFFFFFFFFFFFFFFFFFFFFFFFFFFFFFFF DUP3 AND SWAP1 POP SWAP2 SWAP1 POP JUMP JUMPDEST PUSH1 0x0 PUSH3 0x2B4 DUP3 PUSH3 0x287 JUMP JUMPDEST SWAP1 POP SWAP2 SWAP1 POP JUMP JUMPDEST PUSH3 0x2C6 DUP2 PUSH3 0x2A7 JUMP JUMPDEST DUP2 EQ PUSH3 0x2D2 JUMPI PUSH1 0x0 DUP1 REVERT JUMPDEST POP JUMP JUMPDEST PUSH1 0x0 DUP2 MLOAD SWAP1 POP PUSH3 0x2E6 DUP2 PUSH3 0x2BB JUMP JUMPDEST SWAP3 SWAP2 POP POP JUMP JUMPDEST PUSH1 0x0 PUSH8 0xFFFFFFFFFFFFFFFF DUP3 AND SWAP1 POP SWAP2 SWAP1 POP JUMP JUMPDEST PUSH3 0x30B DUP2 PUSH3 0x2EC JUMP JUMPDEST DUP2 EQ PUSH3 0x317 JUMPI PUSH1 0x0 DUP1 REVERT JUMPDEST POP JUMP JUMPDEST PUSH1 0x0 DUP2 MLOAD SWAP1 POP PUSH3 0x32B DUP2 PUSH3 0x300 JUMP JUMPDEST SWAP3 SWAP2 POP POP JUMP JUMPDEST PUSH1 0x0 DUP2 SWAP1 POP SWAP2 SWAP1 POP JUMP JUMPDEST PUSH3 0x346 DUP2 PUSH3 0x331 JUMP JUMPDEST DUP2 EQ PUSH3 0x352 JUMPI PUSH1 0x0 DUP1 REVERT JUMPDEST POP JUMP JUMPDEST PUSH1 0x0 DUP2 MLOAD SWAP1 POP PUSH3 0x366 DUP2 PUSH3 0x33B JUMP JUMPDEST SWAP3 SWAP2 POP POP JUMP JUMPDEST PUSH1 0x0 DUP2 SWAP1 POP SWAP2 SWAP1 POP JUMP JUMPDEST PUSH3 0x381 DUP2 PUSH3 0x36C JUMP JUMPDEST DUP2 EQ PUSH3 0x38D JUMPI PUSH1 0x0 DUP1 REVERT JUMPDEST POP JUMP JUMPDEST PUSH1 0x0 DUP2 MLOAD SWAP1 POP PUSH3 0x3A1 DUP2 PUSH3 0x376 JUMP JUMPDEST SWAP3 SWAP2 POP POP JUMP JUMPDEST PUSH1 0x0 PUSH4 0xFFFFFFFF DUP3 AND SWAP1 POP SWAP2 SWAP1 POP JUMP JUMPDEST PUSH3 0x3C2 DUP2 PUSH3 0x3A7 JUMP JUMPDEST DUP2 EQ PUSH3 0x3CE JUMPI PUSH1 0x0 DUP1 REVERT JUMPDEST POP JUMP JUMPDEST PUSH1 0x0 DUP2 MLOAD SWAP1 POP PUSH3 0x3E2 DUP2 PUSH3 0x3B7 JUMP JUMPDEST SWAP3 SWAP2 POP POP JUMP JUMPDEST PUSH1 0x0 DUP1 PUSH1 0x0 DUP1 PUSH1 0x0 DUP1 PUSH1 0x0 PUSH1 0xE0 DUP9 DUP11 SUB SLT ISZERO PUSH3 0x40A JUMPI PUSH3 0x409 PUSH3 0x282 JUMP JUMPDEST JUMPDEST PUSH1 0x0 PUSH3 0x41A DUP11 DUP3 DUP12 ADD PUSH3 0x2D5 JUMP JUMPDEST SWAP8 POP POP PUSH1 0x20 PUSH3 0x42D DUP11 DUP3 DUP12 ADD PUSH3 0x31A JUMP JUMPDEST SWAP7 POP POP PUSH1 0x40 PUSH3 0x440 DUP11 DUP3 DUP12 ADD PUSH3 0x355 JUMP JUMPDEST SWAP6 POP POP PUSH1 0x60 PUSH3 0x453 DUP11 DUP3 DUP12 ADD PUSH3 0x390 JUMP JUMPDEST SWAP5 POP POP PUSH1 0x80 PUSH3 0x466 DUP11 DUP3 DUP12 ADD PUSH3 0x390 JUMP JUMPDEST SWAP4 POP POP PUSH1 0xA0 PUSH3 0x479 DUP11 DUP3 DUP12 ADD PUSH3 0x390 JUMP JUMPDEST SWAP3 POP POP PUSH1 0xC0 PUSH3 0x48C DUP11 DUP3 DUP12 ADD PUSH3 0x3D1 JUMP JUMPDEST SWAP2 POP POP SWAP3 SWAP6 SWAP9 SWAP2 SWAP5 SWAP8 POP SWAP3 SWAP6 POP JUMP JUMPDEST PUSH3 0x4A6 DUP2 PUSH3 0x2A7 JUMP JUMPDEST DUP3 MSTORE POP POP JUMP JUMPDEST PUSH1 0x0 PUSH1 0x20 DUP3 ADD SWAP1 POP PUSH3 0x4C3 PUSH1 0x0 DUP4 ADD DUP5 PUSH3 0x49B JUMP JUMPDEST SWAP3 SWAP2 POP POP JUMP JUMPDEST PUSH32 0x4E487B7100000000000000000000000000000000000000000000000000000000 PUSH1 0x0 MSTORE PUSH1 0x21 PUSH1 0x4 MSTORE PUSH1 0x24 PUSH1 0x0 REVERT JUMPDEST PUSH1 0x80 MLOAD PUSH1 0xA0 MLOAD PUSH1 0xC0 MLOAD PUSH1 0xE0 MLOAD PUSH2 0x100 MLOAD PUSH2 0x120 MLOAD PUSH2 0x140 MLOAD PUSH2 0x2A04 PUSH3 0x576 PUSH1 0x0 CODECOPY PUSH1 0x0 DUP2 DUP2 PUSH2 0x1403 ADD MSTORE PUSH2 0x1BA9 ADD MSTORE PUSH1 0x0 DUP2 DUP2 PUSH2 0x560 ADD MSTORE DUP2 DUP2 PUSH2 0x78A ADD MSTORE DUP2 DUP2 PUSH2 0x85C ADD MSTORE PUSH2 0xC18 ADD MSTORE PUSH1 0x0 PUSH2 0x12C3 ADD MSTORE PUSH1 0x0 PUSH2 0x127F ADD MSTORE PUSH1 0x0 PUSH2 0x12A0 ADD MSTORE PUSH1 0x0 PUSH2 0x1243 ADD MSTORE PUSH1 0x0 DUP2 DUP2 PUSH2 0x59D ADD MSTORE PUSH2 0x5F1 ADD MSTORE PUSH2 0x2A04 PUSH1 0x0 RETURN INVALID PUSH1 0x80 PUSH1 0x40 MSTORE PUSH1 0x4 CALLDATASIZE LT PUSH2 0x166 JUMPI PUSH1 0x0 CALLDATALOAD PUSH1 0xE0 SHR DUP1 PUSH4 0x63C75607 GT PUSH2 0xD1 JUMPI DUP1 PUSH4 0x91AD27B4 GT PUSH2 0x8A JUMPI DUP1 PUSH4 0xE55AE4E8 GT PUSH2 0x64 JUMPI DUP1 PUSH4 0xE55AE4E8 EQ PUSH2 0x4B4 JUMPI DUP1 PUSH4 0xEE095C0E EQ PUSH2 0x4F1 JUMPI DUP1 PUSH4 0xF2FDE38B EQ PUSH2 0x508 JUMPI DUP1 PUSH4 0xF57F0180 EQ PUSH2 0x531 JUMPI PUSH2 0x166 JUMP JUMPDEST DUP1 PUSH4 0x91AD27B4 EQ PUSH2 0x433 JUMPI DUP1 PUSH4 0x9582260A EQ PUSH2 0x45E JUMPI DUP1 PUSH4 0xC1C244E8 EQ PUSH2 0x489 JUMPI PUSH2 0x166 JUMP JUMPDEST DUP1 PUSH4 0x63C75607 EQ PUSH2 0x334 JUMPI DUP1 PUSH4 0x697237F6 EQ PUSH2 0x35D JUMPI DUP1 PUSH4 0x6E04FF0D EQ PUSH2 0x388 JUMPI DUP1 PUSH4 0x715018A6 EQ PUSH2 0x3C6 JUMPI DUP1 PUSH4 0x8B5B9CCC EQ PUSH2 0x3DD JUMPI DUP1 PUSH4 0x8DA5CB5B EQ PUSH2 0x408 JUMPI PUSH2 0x166 JUMP JUMPDEST DUP1 PUSH4 0x4585E33B GT PUSH2 0x123 JUMPI DUP1 PUSH4 0x4585E33B EQ PUSH2 0x222 JUMPI DUP1 PUSH4 0x473F1DDC EQ PUSH2 0x24B JUMPI DUP1 PUSH4 0x4D6EA85D EQ PUSH2 0x276 JUMPI DUP1 PUSH4 0x53A2C19A EQ PUSH2 0x2B3 JUMPI DUP1 PUSH4 0x54D2A34A EQ PUSH2 0x2DE JUMPI DUP1 PUSH4 0x5F1B0FD8 EQ PUSH2 0x309 JUMPI PUSH2 0x166 JUMP JUMPDEST DUP1 PUSH4 0x9BC33A7 EQ PUSH2 0x16B JUMPI DUP1 PUSH4 0x115CBAF5 EQ PUSH2 0x196 JUMPI DUP1 PUSH4 0x1FE543E3 EQ PUSH2 0x1C1 JUMPI DUP1 PUSH4 0x242284F1 EQ PUSH2 0x1EA JUMPI DUP1 PUSH4 0x2CFCC539 EQ PUSH2 0x201 JUMPI DUP1 PUSH4 0x38E771AB EQ PUSH2 0x20B JUMPI JUMPDEST PUSH1 0x0 DUP1 REVERT JUMPDEST CALLVALUE DUP1 ISZERO PUSH2 0x177 JUMPI PUSH1 0x0 DUP1 REVERT JUMPDEST POP PUSH2 0x180 PUSH2 0x55C JUMP JUMPDEST PUSH1 0x40 MLOAD PUSH2 0x18D SWAP2 SWAP1 PUSH2 0x1F13 JUMP JUMPDEST PUSH1 0x40 MLOAD DUP1 SWAP2 SUB SWAP1 RETURN JUMPDEST CALLVALUE DUP1 ISZERO PUSH2 0x1A2 JUMPI PUSH1 0x0 DUP1 REVERT JUMPDEST POP PUSH2 0x1AB PUSH2 0x584 JUMP JUMPDEST PUSH1 0x40 MLOAD PUSH2 0x1B8 SWAP2 SWAP1 PUSH2 0x1FA5 JUMP JUMPDEST PUSH1 0x40 MLOAD DUP1 SWAP2 SUB SWAP1 RETURN JUMPDEST CALLVALUE DUP1 ISZERO PUSH2 0x1CD JUMPI PUSH1 0x0 DUP1 REVERT JUMPDEST POP PUSH2 0x1E8 PUSH1 0x4 DUP1 CALLDATASIZE SUB DUP2 ADD SWAP1 PUSH2 0x1E3 SWAP2 SWAP1 PUSH2 0x2159 JUMP JUMPDEST PUSH2 0x59B JUMP JUMPDEST STOP JUMPDEST CALLVALUE DUP1 ISZERO PUSH2 0x1F6 JUMPI PUSH1 0x0 DUP1 REVERT JUMPDEST POP PUSH2 0x1FF PUSH2 0x65B JUMP JUMPDEST STOP JUMPDEST PUSH2 0x209 PUSH2 0x786 JUMP JUMPDEST STOP JUMPDEST CALLVALUE DUP1 ISZERO PUSH2 0x217 JUMPI PUSH1 0x0 DUP1 REVERT JUMPDEST POP PUSH2 0x220 PUSH2 0xA68 JUMP JUMPDEST STOP JUMPDEST CALLVALUE DUP1 ISZERO PUSH2 0x22E JUMPI PUSH1 0x0 DUP1 REVERT JUMPDEST POP PUSH2 0x249 PUSH1 0x4 DUP1 CALLDATASIZE SUB DUP2 ADD SWAP1 PUSH2 0x244 SWAP2 SWAP1 PUSH2 0x2210 JUMP JUMPDEST PUSH2 0xE95 JUMP JUMPDEST STOP JUMPDEST CALLVALUE DUP1 ISZERO PUSH2 0x257 JUMPI PUSH1 0x0 DUP1 REVERT JUMPDEST POP PUSH2 0x260 PUSH2 0x137D JUMP JUMPDEST PUSH1 0x40 MLOAD PUSH2 0x26D SWAP2 SWAP1 PUSH2 0x229E JUMP JUMPDEST PUSH1 0x40 MLOAD DUP1 SWAP2 SUB SWAP1 RETURN JUMPDEST CALLVALUE DUP1 ISZERO PUSH2 0x282 JUMPI PUSH1 0x0 DUP1 REVERT JUMPDEST POP PUSH2 0x29D PUSH1 0x4 DUP1 CALLDATASIZE SUB DUP2 ADD SWAP1 PUSH2 0x298 SWAP2 SWAP1 PUSH2 0x22E5 JUMP JUMPDEST PUSH2 0x13A7 JUMP JUMPDEST PUSH1 0x40 MLOAD PUSH2 0x2AA SWAP2 SWAP1 PUSH2 0x1F13 JUMP JUMPDEST PUSH1 0x40 MLOAD DUP1 SWAP2 SUB SWAP1 RETURN JUMPDEST CALLVALUE DUP1 ISZERO PUSH2 0x2BF JUMPI PUSH1 0x0 DUP1 REVERT JUMPDEST POP PUSH2 0x2C8 PUSH2 0x13F0 JUMP JUMPDEST PUSH1 0x40 MLOAD PUSH2 0x2D5 SWAP2 SWAP1 PUSH2 0x1F13 JUMP JUMPDEST PUSH1 0x40 MLOAD DUP1 SWAP2 SUB SWAP1 RETURN JUMPDEST CALLVALUE DUP1 ISZERO PUSH2 0x2EA JUMPI PUSH1 0x0 DUP1 REVERT JUMPDEST POP PUSH2 0x2F3 PUSH2 0x13FF JUMP JUMPDEST PUSH1 0x40 MLOAD PUSH2 0x300 SWAP2 SWAP1 PUSH2 0x1F13 JUMP JUMPDEST PUSH1 0x40 MLOAD DUP1 SWAP2 SUB SWAP1 RETURN JUMPDEST CALLVALUE DUP1 ISZERO PUSH2 0x315 JUMPI PUSH1 0x0 DUP1 REVERT JUMPDEST POP PUSH2 0x31E PUSH2 0x1427 JUMP JUMPDEST PUSH1 0x40 MLOAD PUSH2 0x32B SWAP2 SWAP1 PUSH2 0x1F13 JUMP JUMPDEST PUSH1 0x40 MLOAD DUP1 SWAP2 SUB SWAP1 RETURN JUMPDEST CALLVALUE DUP1 ISZERO PUSH2 0x340 JUMPI PUSH1 0x0 DUP1 REVERT JUMPDEST POP PUSH2 0x35B PUSH1 0x4 DUP1 CALLDATASIZE SUB DUP2 ADD SWAP1 PUSH2 0x356 SWAP2 SWAP1 PUSH2 0x2312 JUMP JUMPDEST PUSH2 0x1434 JUMP JUMPDEST STOP JUMPDEST CALLVALUE DUP1 ISZERO PUSH2 0x369 JUMPI PUSH1 0x0 DUP1 REVERT JUMPDEST POP PUSH2 0x372 PUSH2 0x14DE JUMP JUMPDEST PUSH1 0x40 MLOAD PUSH2 0x37F SWAP2 SWAP1 PUSH2 0x1F13 JUMP JUMPDEST PUSH1 0x40 MLOAD DUP1 SWAP2 SUB SWAP1 RETURN JUMPDEST CALLVALUE DUP1 ISZERO PUSH2 0x394 JUMPI PUSH1 0x0 DUP1 REVERT JUMPDEST POP PUSH2 0x3AF PUSH1 0x4 DUP1 CALLDATASIZE SUB DUP2 ADD SWAP1 PUSH2 0x3AA SWAP2 SWAP1 PUSH2 0x23F4 JUMP JUMPDEST PUSH2 0x14E8 JUMP JUMPDEST PUSH1 0x40 MLOAD PUSH2 0x3BD SWAP3 SWAP2 SWAP1 PUSH2 0x24D7 JUMP JUMPDEST PUSH1 0x40 MLOAD DUP1 SWAP2 SUB SWAP1 RETURN JUMPDEST CALLVALUE DUP1 ISZERO PUSH2 0x3D2 JUMPI PUSH1 0x0 DUP1 REVERT JUMPDEST POP PUSH2 0x3DB PUSH2 0x158A JUMP JUMPDEST STOP JUMPDEST CALLVALUE DUP1 ISZERO PUSH2 0x3E9 JUMPI PUSH1 0x0 DUP1 REVERT JUMPDEST POP PUSH2 0x3F2 PUSH2 0x159E JUMP JUMPDEST PUSH1 0x40 MLOAD PUSH2 0x3FF SWAP2 SWAP1 PUSH2 0x25C5 JUMP JUMPDEST PUSH1 0x40 MLOAD DUP1 SWAP2 SUB SWAP1 RETURN JUMPDEST CALLVALUE DUP1 ISZERO PUSH2 0x414 JUMPI PUSH1 0x0 DUP1 REVERT JUMPDEST POP PUSH2 0x41D PUSH2 0x162C JUMP JUMPDEST PUSH1 0x40 MLOAD PUSH2 0x42A SWAP2 SWAP1 PUSH2 0x229E JUMP JUMPDEST PUSH1 0x40 MLOAD DUP1 SWAP2 SUB SWAP1 RETURN JUMPDEST CALLVALUE DUP1 ISZERO PUSH2 0x43F JUMPI PUSH1 0x0 DUP1 REVERT JUMPDEST POP PUSH2 0x448 PUSH2 0x1655 JUMP JUMPDEST PUSH1 0x40 MLOAD PUSH2 0x455 SWAP2 SWAP1 PUSH2 0x1F13 JUMP JUMPDEST PUSH1 0x40 MLOAD DUP1 SWAP2 SUB SWAP1 RETURN JUMPDEST CALLVALUE DUP1 ISZERO PUSH2 0x46A JUMPI PUSH1 0x0 DUP1 REVERT JUMPDEST POP PUSH2 0x473 PUSH2 0x165F JUMP JUMPDEST PUSH1 0x40 MLOAD PUSH2 0x480 SWAP2 SWAP1 PUSH2 0x1F13 JUMP JUMPDEST PUSH1 0x40 MLOAD DUP1 SWAP2 SUB SWAP1 RETURN JUMPDEST CALLVALUE DUP1 ISZERO PUSH2 0x495 JUMPI PUSH1 0x0 DUP1 REVERT JUMPDEST POP PUSH2 0x49E PUSH2 0x166C JUMP JUMPDEST PUSH1 0x40 MLOAD PUSH2 0x4AB SWAP2 SWAP1 PUSH2 0x1F13 JUMP JUMPDEST PUSH1 0x40 MLOAD DUP1 SWAP2 SUB SWAP1 RETURN JUMPDEST CALLVALUE DUP1 ISZERO PUSH2 0x4C0 JUMPI PUSH1 0x0 DUP1 REVERT JUMPDEST POP PUSH2 0x4DB PUSH1 0x4 DUP1 CALLDATASIZE SUB DUP2 ADD SWAP1 PUSH2 0x4D6 SWAP2 SWAP1 PUSH2 0x2312 JUMP JUMPDEST PUSH2 0x1676 JUMP JUMPDEST PUSH1 0x40 MLOAD PUSH2 0x4E8 SWAP2 SWAP1 PUSH2 0x229E JUMP JUMPDEST PUSH1 0x40 MLOAD DUP1 SWAP2 SUB SWAP1 RETURN JUMPDEST CALLVALUE DUP1 ISZERO PUSH2 0x4FD JUMPI PUSH1 0x0 DUP1 REVERT JUMPDEST POP PUSH2 0x506 PUSH2 0x16BE JUMP JUMPDEST STOP JUMPDEST CALLVALUE DUP1 ISZERO PUSH2 0x514 JUMPI PUSH1 0x0 DUP1 REVERT JUMPDEST POP PUSH2 0x52F PUSH1 0x4 DUP1 CALLDATASIZE SUB DUP2 ADD SWAP1 PUSH2 0x52A SWAP2 SWAP1 PUSH2 0x22E5 JUMP JUMPDEST PUSH2 0x1802 JUMP JUMPDEST STOP JUMPDEST CALLVALUE DUP1 ISZERO PUSH2 0x53D JUMPI PUSH1 0x0 DUP1 REVERT JUMPDEST POP PUSH2 0x546 PUSH2 0x1888 JUMP JUMPDEST PUSH1 0x40 MLOAD PUSH2 0x553 SWAP2 SWAP1 PUSH2 0x1F13 JUMP JUMPDEST PUSH1 0x40 MLOAD DUP1 SWAP2 SUB SWAP1 RETURN JUMPDEST PUSH1 0x0 PUSH32 0x0 SWAP1 POP SWAP1 JUMP JUMPDEST PUSH1 0x0 PUSH1 0x6 PUSH1 0x0 SWAP1 SLOAD SWAP1 PUSH2 0x100 EXP SWAP1 DIV PUSH1 0xFF AND SWAP1 POP SWAP1 JUMP JUMPDEST PUSH32 0x0 PUSH20 0xFFFFFFFFFFFFFFFFFFFFFFFFFFFFFFFFFFFFFFFF AND CALLER PUSH20 0xFFFFFFFFFFFFFFFFFFFFFFFFFFFFFFFFFFFFFFFF AND EQ PUSH2 0x64D JUMPI CALLER PUSH32 0x0 PUSH1 0x40 MLOAD PUSH32 0x1CF993F400000000000000000000000000000000000000000000000000000000 DUP2 MSTORE PUSH1 0x4 ADD PUSH2 0x644 SWAP3 SWAP2 SWAP1 PUSH2 0x25E7 JUMP JUMPDEST PUSH1 0x40 MLOAD DUP1 SWAP2 SUB SWAP1 REVERT JUMPDEST PUSH2 0x657 DUP3 DUP3 PUSH2 0x1892 JUMP JUMPDEST POP POP JUMP JUMPDEST PUSH2 0x663 PUSH2 0x1C58 JUMP JUMPDEST PUSH1 0x2 DUP1 DUP2 GT ISZERO PUSH2 0x676 JUMPI PUSH2 0x675 PUSH2 0x1F2E JUMP JUMPDEST JUMPDEST PUSH1 0x6 PUSH1 0x0 SWAP1 SLOAD SWAP1 PUSH2 0x100 EXP SWAP1 DIV PUSH1 0xFF AND PUSH1 0x2 DUP2 GT ISZERO PUSH2 0x698 JUMPI PUSH2 0x697 PUSH2 0x1F2E JUMP JUMPDEST JUMPDEST EQ ISZERO DUP1 PUSH2 0x6AA JUMPI POP PUSH1 0x0 PUSH1 0x5 DUP1 SLOAD SWAP1 POP GT JUMPDEST DUP1 PUSH2 0x6B5 JUMPI POP PUSH1 0x0 SELFBALANCE GT JUMPDEST ISZERO PUSH2 0x723 JUMPI CALLER SELFBALANCE PUSH1 0x5 DUP1 SLOAD SWAP1 POP PUSH1 0x6 PUSH1 0x0 SWAP1 SLOAD SWAP1 PUSH2 0x100 EXP SWAP1 DIV PUSH1 0xFF AND PUSH1 0x2 DUP2 GT ISZERO PUSH2 0x6E4 JUMPI PUSH2 0x6E3 PUSH2 0x1F2E JUMP JUMPDEST JUMPDEST PUSH1 0x40 MLOAD PUSH32 0x989584F800000000000000000000000000000000000000000000000000000000 DUP2 MSTORE PUSH1 0x4 ADD PUSH2 0x71A SWAP5 SWAP4 SWAP3 SWAP2 SWAP1 PUSH2 0x2610 JUMP JUMPDEST PUSH1 0x40 MLOAD DUP1 SWAP2 SUB SWAP1 REVERT JUMPDEST PUSH1 0x0 PUSH1 0x6 PUSH1 0x0 PUSH2 0x100 EXP DUP2 SLOAD DUP2 PUSH1 0xFF MUL NOT AND SWAP1 DUP4 PUSH1 0x2 DUP2 GT ISZERO PUSH2 0x749 JUMPI PUSH2 0x748 PUSH2 0x1F2E JUMP JUMPDEST JUMPDEST MUL OR SWAP1 SSTORE POP TIMESTAMP PUSH1 0x2 DUP2 SWAP1 SSTORE POP PUSH1 0x2 SLOAD PUSH32 0x55474E5A13C390E9594AB9C0E33694AD0C2027FA1555C1CB83C9012E6A464BA7 PUSH1 0x40 MLOAD PUSH1 0x40 MLOAD DUP1 SWAP2 SUB SWAP1 LOG2 JUMP JUMPDEST PUSH1 0x0 PUSH32 0x0 CALLVALUE PUSH2 0x7B4 SWAP2 SWAP1 PUSH2 0x2684 JUMP JUMPDEST EQ PUSH2 0x7EB JUMPI PUSH1 0x40 MLOAD PUSH32 0xA11B52C900000000000000000000000000000000000000000000000000000000 DUP2 MSTORE PUSH1 0x4 ADD PUSH1 0x40 MLOAD DUP1 SWAP2 SUB SWAP1 REVERT JUMPDEST PUSH1 0x0 PUSH1 0x2 DUP2 GT ISZERO PUSH2 0x7FF JUMPI PUSH2 0x7FE PUSH2 0x1F2E JUMP JUMPDEST JUMPDEST PUSH1 0x6 PUSH1 0x0 SWAP1 SLOAD SWAP1 PUSH2 0x100 EXP SWAP1 DIV PUSH1 0xFF AND PUSH1 0x2 DUP2 GT ISZERO PUSH2 0x821 JUMPI PUSH2 0x820 PUSH2 0x1F2E JUMP JUMPDEST JUMPDEST EQ PUSH2 0x858 JUMPI PUSH1 0x40 MLOAD PUSH32 0xD24A271400000000000000000000000000000000000000000000000000000000 DUP2 MSTORE PUSH1 0x4 ADD PUSH1 0x40 MLOAD DUP1 SWAP2 SUB SWAP1 REVERT JUMPDEST PUSH1 0x0 PUSH32 0x0 CALLVALUE PUSH2 0x886 SWAP2 SWAP1 PUSH2 0x26E4 JUMP JUMPDEST SWAP1 POP DUP1 PUSH1 0x7 PUSH1 0x0 CALLER PUSH20 0xFFFFFFFFFFFFFFFFFFFFFFFFFFFFFFFFFFFFFFFF AND PUSH20 0xFFFFFFFFFFFFFFFFFFFFFFFFFFFFFFFFFFFFFFFF AND DUP2 MSTORE PUSH1 0x20 ADD SWAP1 DUP2 MSTORE PUSH1 0x20 ADD PUSH1 0x0 KECCAK256 PUSH1 0x0 DUP3 DUP3 SLOAD PUSH2 0x8D7 SWAP2 SWAP1 PUSH2 0x2715 JUMP JUMPDEST SWAP3 POP POP DUP2 SWAP1 SSTORE POP PUSH1 0x8 PUSH1 0x0 CALLER PUSH20 0xFFFFFFFFFFFFFFFFFFFFFFFFFFFFFFFFFFFFFFFF AND PUSH20 0xFFFFFFFFFFFFFFFFFFFFFFFFFFFFFFFFFFFFFFFF AND DUP2 MSTORE PUSH1 0x20 ADD SWAP1 DUP2 MSTORE PUSH1 0x20 ADD PUSH1 0x0 KECCAK256 PUSH1 0x0 SWAP1 SLOAD SWAP1 PUSH2 0x100 EXP SWAP1 DIV PUSH1 0xFF AND PUSH2 0x9A0 JUMPI PUSH1 0x1 PUSH1 0x8 PUSH1 0x0 CALLER PUSH20 0xFFFFFFFFFFFFFFFFFFFFFFFFFFFFFFFFFFFFFFFF AND PUSH20 0xFFFFFFFFFFFFFFFFFFFFFFFFFFFFFFFFFFFFFFFF AND DUP2 MSTORE PUSH1 0x20 ADD SWAP1 DUP2 MSTORE PUSH1 0x20 ADD PUSH1 0x0 KECCAK256 PUSH1 0x0 PUSH2 0x100 EXP DUP2 SLOAD DUP2 PUSH1 0xFF MUL NOT AND SWAP1 DUP4 ISZERO ISZERO MUL OR SWAP1 SSTORE POP PUSH1 0x9 PUSH1 0x0 DUP2 SLOAD DUP1 SWAP3 SWAP2 SWAP1 PUSH2 0x99A SWAP1 PUSH2 0x2749 JUMP JUMPDEST SWAP2 SWAP1 POP SSTORE POP JUMPDEST PUSH1 0x0 JUMPDEST DUP2 DUP2 LT ISZERO PUSH2 0xA21 JUMPI PUSH1 0x5 CALLER SWAP1 DUP1 PUSH1 0x1 DUP2 SLOAD ADD DUP1 DUP3 SSTORE DUP1 SWAP2 POP POP PUSH1 0x1 SWAP1 SUB SWAP1 PUSH1 0x0 MSTORE PUSH1 0x20 PUSH1 0x0 KECCAK256 ADD PUSH1 0x0 SWAP1 SWAP2 SWAP1 SWAP2 SWAP1 SWAP2 PUSH2 0x100 EXP DUP2 SLOAD DUP2 PUSH20 0xFFFFFFFFFFFFFFFFFFFFFFFFFFFFFFFFFFFFFFFF MUL NOT AND SWAP1 DUP4 PUSH20 0xFFFFFFFFFFFFFFFFFFFFFFFFFFFFFFFFFFFFFFFF AND MUL OR SWAP1 SSTORE POP DUP1 DUP1 PUSH2 0xA19 SWAP1 PUSH2 0x2749 JUMP JUMPDEST SWAP2 POP POP PUSH2 0x9A3 JUMP JUMPDEST POP CALLER PUSH20 0xFFFFFFFFFFFFFFFFFFFFFFFFFFFFFFFFFFFFFFFF AND PUSH32 0x805E1D667BDDB8A95F0F09880CF94F403FB596CE79928D9F29B74203BA284D4 PUSH1 0x40 MLOAD PUSH1 0x40 MLOAD DUP1 SWAP2 SUB SWAP1 LOG2 POP JUMP JUMPDEST PUSH2 0xA70 PUSH2 0x1C58 JUMP JUMPDEST PUSH1 0x1 PUSH1 0x2 DUP2 GT ISZERO PUSH2 0xA84 JUMPI PUSH2 0xA83 PUSH2 0x1F2E JUMP JUMPDEST JUMPDEST PUSH1 0x6 PUSH1 0x0 SWAP1 SLOAD SWAP1 PUSH2 0x100 EXP SWAP1 DIV PUSH1 0xFF AND PUSH1 0x2 DUP2 GT ISZERO PUSH2 0xAA6 JUMPI PUSH2 0xAA5 PUSH2 0x1F2E JUMP JUMPDEST JUMPDEST EQ ISZERO DUP1 PUSH2 0xAB8 JUMPI POP PUSH1 0x0 PUSH1 0x5 DUP1 SLOAD SWAP1 POP EQ JUMPDEST DUP1 PUSH2 0xAC3 JUMPI POP PUSH1 0x0 SELFBALANCE EQ JUMPDEST ISZERO PUSH2 0xB31 JUMPI CALLER SELFBALANCE PUSH1 0x5 DUP1 SLOAD SWAP1 POP PUSH1 0x6 PUSH1 0x0 SWAP1 SLOAD SWAP1 PUSH2 0x100 EXP SWAP1 DIV PUSH1 0xFF AND PUSH1 0x2 DUP2 GT ISZERO PUSH2 0xAF2 JUMPI PUSH2 0xAF1 PUSH2 0x1F2E JUMP JUMPDEST JUMPDEST PUSH1 0x40 MLOAD PUSH32 0x9205508400000000000000000000000000000000000000000000000000000000 DUP2 MSTORE PUSH1 0x4 ADD PUSH2 0xB28 SWAP5 SWAP4 SWAP3 SWAP2 SWAP1 PUSH2 0x2610 JUMP JUMPDEST PUSH1 0x40 MLOAD DUP1 SWAP2 SUB SWAP1 REVERT JUMPDEST PUSH1 0x0 JUMPDEST PUSH1 0x5 DUP1 SLOAD SWAP1 POP DUP2 LT ISZERO PUSH2 0xDB1 JUMPI PUSH1 0x8 PUSH1 0x0 PUSH1 0x5 DUP4 DUP2 SLOAD DUP2 LT PUSH2 0xB59 JUMPI PUSH2 0xB58 PUSH2 0x2791 JUMP JUMPDEST JUMPDEST SWAP1 PUSH1 0x0 MSTORE PUSH1 0x20 PUSH1 0x0 KECCAK256 ADD PUSH1 0x0 SWAP1 SLOAD SWAP1 PUSH2 0x100 EXP SWAP1 DIV PUSH20 0xFFFFFFFFFFFFFFFFFFFFFFFFFFFFFFFFFFFFFFFF AND PUSH20 0xFFFFFFFFFFFFFFFFFFFFFFFFFFFFFFFFFFFFFFFF AND PUSH20 0xFFFFFFFFFFFFFFFFFFFFFFFFFFFFFFFFFFFFFFFF AND DUP2 MSTORE PUSH1 0x20 ADD SWAP1 DUP2 MSTORE PUSH1 0x20 ADD PUSH1 0x0 KECCAK256 PUSH1 0x0 SWAP1 SLOAD SWAP1 PUSH2 0x100 EXP SWAP1 DIV PUSH1 0xFF AND ISZERO PUSH2 0xD9E JUMPI PUSH1 0x0 PUSH1 0x5 DUP3 DUP2 SLOAD DUP2 LT PUSH2 0xBE7 JUMPI PUSH2 0xBE6 PUSH2 0x2791 JUMP JUMPDEST JUMPDEST SWAP1 PUSH1 0x0 MSTORE PUSH1 0x20 PUSH1 0x0 KECCAK256 ADD PUSH1 0x0 SWAP1 SLOAD SWAP1 PUSH2 0x100 EXP SWAP1 DIV PUSH20 0xFFFFFFFFFFFFFFFFFFFFFFFFFFFFFFFFFFFFFFFF AND SWAP1 POP PUSH1 0x0 PUSH32 0x0 PUSH1 0x7 PUSH1 0x0 DUP5 PUSH20 0xFFFFFFFFFFFFFFFFFFFFFFFFFFFFFFFFFFFFFFFF AND PUSH20 0xFFFFFFFFFFFFFFFFFFFFFFFFFFFFFFFFFFFFFFFF AND DUP2 MSTORE PUSH1 0x20 ADD SWAP1 DUP2 MSTORE PUSH1 0x20 ADD PUSH1 0x0 KECCAK256 SLOAD PUSH2 0xC81 SWAP2 SWAP1 PUSH2 0x27C0 JUMP JUMPDEST SWAP1 POP PUSH2 0xC8D DUP3 DUP3 PUSH2 0x1CDF JUMP JUMPDEST PUSH1 0x8 PUSH1 0x0 PUSH1 0x5 DUP6 DUP2 SLOAD DUP2 LT PUSH2 0xCA5 JUMPI PUSH2 0xCA4 PUSH2 0x2791 JUMP JUMPDEST JUMPDEST SWAP1 PUSH1 0x0 MSTORE PUSH1 0x20 PUSH1 0x0 KECCAK256 ADD PUSH1 0x0 SWAP1 SLOAD SWAP1 PUSH2 0x100 EXP SWAP1 DIV PUSH20 0xFFFFFFFFFFFFFFFFFFFFFFFFFFFFFFFFFFFFFFFF AND PUSH20 0xFFFFFFFFFFFFFFFFFFFFFFFFFFFFFFFFFFFFFFFF AND PUSH20 0xFFFFFFFFFFFFFFFFFFFFFFFFFFFFFFFFFFFFFFFF AND DUP2 MSTORE PUSH1 0x20 ADD SWAP1 DUP2 MSTORE PUSH1 0x20 ADD PUSH1 0x0 KECCAK256 PUSH1 0x0 PUSH2 0x100 EXP DUP2 SLOAD SWAP1 PUSH1 0xFF MUL NOT AND SWAP1 SSTORE PUSH1 0x7 PUSH1 0x0 PUSH1 0x5 DUP6 DUP2 SLOAD DUP2 LT PUSH2 0xD32 JUMPI PUSH2 0xD31 PUSH2 0x2791 JUMP JUMPDEST JUMPDEST SWAP1 PUSH1 0x0 MSTORE PUSH1 0x20 PUSH1 0x0 KECCAK256 ADD PUSH1 0x0 SWAP1 SLOAD SWAP1 PUSH2 0x100 EXP SWAP1 DIV PUSH20 0xFFFFFFFFFFFFFFFFFFFFFFFFFFFFFFFFFFFFFFFF AND PUSH20 0xFFFFFFFFFFFFFFFFFFFFFFFFFFFFFFFFFFFFFFFF AND PUSH20 0xFFFFFFFFFFFFFFFFFFFFFFFFFFFFFFFFFFFFFFFF AND DUP2 MSTORE PUSH1 0x20 ADD SWAP1 DUP2 MSTORE PUSH1 0x20 ADD PUSH1 0x0 KECCAK256 PUSH1 0x0 SWAP1 SSTORE POP POP JUMPDEST DUP1 DUP1 PUSH2 0xDA9 SWAP1 PUSH2 0x2749 JUMP JUMPDEST SWAP2 POP POP PUSH2 0xB34 JUMP JUMPDEST POP PUSH1 0x0 PUSH8 0xFFFFFFFFFFFFFFFF DUP2 GT ISZERO PUSH2 0xDCD JUMPI PUSH2 0xDCC PUSH2 0x2016 JUMP JUMPDEST JUMPDEST PUSH1 0x40 MLOAD SWAP1 DUP1 DUP3 MSTORE DUP1 PUSH1 0x20 MUL PUSH1 0x20 ADD DUP3 ADD PUSH1 0x40 MSTORE DUP1 ISZERO PUSH2 0xDFB JUMPI DUP2 PUSH1 0x20 ADD PUSH1 0x20 DUP3 MUL DUP1 CALLDATASIZE DUP4 CALLDATACOPY DUP1 DUP3 ADD SWAP2 POP POP SWAP1 POP JUMPDEST POP PUSH1 0x5 SWAP1 DUP1 MLOAD SWAP1 PUSH1 0x20 ADD SWAP1 PUSH2 0xE11 SWAP3 SWAP2 SWAP1 PUSH2 0x1E53 JUMP JUMPDEST POP PUSH1 0x0 PUSH1 0x9 DUP2 SWAP1 SSTORE POP PUSH1 0x2 PUSH1 0x6 PUSH1 0x0 PUSH2 0x100 EXP DUP2 SLOAD DUP2 PUSH1 0xFF MUL NOT AND SWAP1 DUP4 PUSH1 0x2 DUP2 GT ISZERO PUSH2 0xE40 JUMPI PUSH2 0xE3F PUSH2 0x1F2E JUMP JUMPDEST JUMPDEST MUL OR SWAP1 SSTORE POP PUSH1 0x6 PUSH1 0x0 SWAP1 SLOAD SWAP1 PUSH2 0x100 EXP SWAP1 DIV PUSH1 0xFF AND PUSH1 0x2 DUP2 GT ISZERO PUSH2 0xE67 JUMPI PUSH2 0xE66 PUSH2 0x1F2E JUMP JUMPDEST JUMPDEST PUSH32 0xE80780B6EFDB52AB57A7F583FDFC286B925CADDDA150DCA6A95BAA3F0CFB591C PUSH1 0x40 MLOAD PUSH1 0x40 MLOAD DUP1 SWAP2 SUB SWAP1 LOG2 JUMP JUMPDEST PUSH1 0x0 PUSH2 0xEAF PUSH1 0x40 MLOAD DUP1 PUSH1 0x20 ADD PUSH1 0x40 MSTORE DUP1 PUSH1 0x0 DUP2 MSTORE POP PUSH2 0x14E8 JUMP JUMPDEST POP SWAP1 POP DUP1 PUSH2 0xF31 JUMPI SELFBALANCE PUSH1 0x5 DUP1 SLOAD SWAP1 POP PUSH1 0x6 PUSH1 0x0 SWAP1 SLOAD SWAP1 PUSH2 0x100 EXP SWAP1 DIV PUSH1 0xFF AND PUSH1 0x2 DUP2 GT ISZERO PUSH2 0xEE0 JUMPI PUSH2 0xEDF PUSH2 0x1F2E JUMP JUMPDEST JUMPDEST PUSH1 0x1 SLOAD PUSH1 0x2 SLOAD TIMESTAMP PUSH2 0xEF1 SWAP2 SWAP1 PUSH2 0x2802 JUMP JUMPDEST GT PUSH1 0x40 MLOAD PUSH32 0xA8DBACDA00000000000000000000000000000000000000000000000000000000 DUP2 MSTORE PUSH1 0x4 ADD PUSH2 0xF28 SWAP5 SWAP4 SWAP3 SWAP2 SWAP1 PUSH2 0x2836 JUMP JUMPDEST PUSH1 0x40 MLOAD DUP1 SWAP2 SUB SWAP1 REVERT JUMPDEST PUSH1 0x0 PUSH1 0x5 DUP1 SLOAD SWAP1 POP SUB PUSH2 0xF7A JUMPI TIMESTAMP PUSH1 0x2 DUP2 SWAP1 SSTORE POP PUSH1 0x2 SLOAD PUSH32 0x55474E5A13C390E9594AB9C0E33694AD0C2027FA1555C1CB83C9012E6A464BA7 PUSH1 0x40 MLOAD PUSH1 0x40 MLOAD DUP1 SWAP2 SUB SWAP1 LOG2 POP PUSH2 0x1379 JUMP JUMPDEST PUSH1 0x1 PUSH1 0x6 PUSH1 0x0 PUSH2 0x100 EXP DUP2 SLOAD DUP2 PUSH1 0xFF MUL NOT AND SWAP1 DUP4 PUSH1 0x2 DUP2 GT ISZERO PUSH2 0xFA0 JUMPI PUSH2 0xF9F PUSH2 0x1F2E JUMP JUMPDEST JUMPDEST MUL OR SWAP1 SSTORE POP PUSH1 0x1 PUSH1 0x9 SLOAD SUB PUSH2 0x123F JUMPI PUSH1 0x5 PUSH1 0x0 DUP2 SLOAD DUP2 LT PUSH2 0xFC4 JUMPI PUSH2 0xFC3 PUSH2 0x2791 JUMP JUMPDEST JUMPDEST SWAP1 PUSH1 0x0 MSTORE PUSH1 0x20 PUSH1 0x0 KECCAK256 ADD PUSH1 0x0 SWAP1 SLOAD SWAP1 PUSH2 0x100 EXP SWAP1 DIV PUSH20 0xFFFFFFFFFFFFFFFFFFFFFFFFFFFFFFFFFFFFFFFF AND PUSH1 0x3 PUSH1 0x0 PUSH2 0x100 EXP DUP2 SLOAD DUP2 PUSH20 0xFFFFFFFFFFFFFFFFFFFFFFFFFFFFFFFFFFFFFFFF MUL NOT AND SWAP1 DUP4 PUSH20 0xFFFFFFFFFFFFFFFFFFFFFFFFFFFFFFFFFFFFFFFF AND MUL OR SWAP1 SSTORE POP PUSH1 0x8 PUSH1 0x0 PUSH1 0x3 PUSH1 0x0 SWAP1 SLOAD SWAP1 PUSH2 0x100 EXP SWAP1 DIV PUSH20 0xFFFFFFFFFFFFFFFFFFFFFFFFFFFFFFFFFFFFFFFF AND PUSH20 0xFFFFFFFFFFFFFFFFFFFFFFFFFFFFFFFFFFFFFFFF AND PUSH20 0xFFFFFFFFFFFFFFFFFFFFFFFFFFFFFFFFFFFFFFFF AND DUP2 MSTORE PUSH1 0x20 ADD SWAP1 DUP2 MSTORE PUSH1 0x20 ADD PUSH1 0x0 KECCAK256 PUSH1 0x0 PUSH2 0x100 EXP DUP2 SLOAD SWAP1 PUSH1 0xFF MUL NOT AND SWAP1 SSTORE PUSH1 0x7 PUSH1 0x0 PUSH1 0x3 PUSH1 0x0 SWAP1 SLOAD SWAP1 PUSH2 0x100 EXP SWAP1 DIV PUSH20 0xFFFFFFFFFFFFFFFFFFFFFFFFFFFFFFFFFFFFFFFF AND PUSH20 0xFFFFFFFFFFFFFFFFFFFFFFFFFFFFFFFFFFFFFFFF AND PUSH20 0xFFFFFFFFFFFFFFFFFFFFFFFFFFFFFFFFFFFFFFFF AND DUP2 MSTORE PUSH1 0x20 ADD SWAP1 DUP2 MSTORE PUSH1 0x20 ADD PUSH1 0x0 KECCAK256 PUSH1 0x0 SWAP1 SSTORE PUSH1 0x0 PUSH8 0xFFFFFFFFFFFFFFFF DUP2 GT ISZERO PUSH2 0x1120 JUMPI PUSH2 0x111F PUSH2 0x2016 JUMP JUMPDEST JUMPDEST PUSH1 0x40 MLOAD SWAP1 DUP1 DUP3 MSTORE DUP1 PUSH1 0x20 MUL PUSH1 0x20 ADD DUP3 ADD PUSH1 0x40 MSTORE DUP1 ISZERO PUSH2 0x114E JUMPI DUP2 PUSH1 0x20 ADD PUSH1 0x20 DUP3 MUL DUP1 CALLDATASIZE DUP4 CALLDATACOPY DUP1 DUP3 ADD SWAP2 POP POP SWAP1 POP JUMPDEST POP PUSH1 0x5 SWAP1 DUP1 MLOAD SWAP1 PUSH1 0x20 ADD SWAP1 PUSH2 0x1164 SWAP3 SWAP2 SWAP1 PUSH2 0x1E53 JUMP JUMPDEST POP PUSH1 0x0 PUSH1 0x9 DUP2 SWAP1 SSTORE POP PUSH1 0x0 PUSH1 0x6 PUSH1 0x0 PUSH2 0x100 EXP DUP2 SLOAD DUP2 PUSH1 0xFF MUL NOT AND SWAP1 DUP4 PUSH1 0x2 DUP2 GT ISZERO PUSH2 0x1193 JUMPI PUSH2 0x1192 PUSH2 0x1F2E JUMP JUMPDEST JUMPDEST MUL OR SWAP1 SSTORE POP TIMESTAMP PUSH1 0x2 DUP2 SWAP1 SSTORE POP SELFBALANCE PUSH1 0x4 DUP2 SWAP1 SSTORE POP PUSH2 0x11D4 PUSH1 0x3 PUSH1 0x0 SWAP1 SLOAD SWAP1 PUSH2 0x100 EXP SWAP1 DIV PUSH20 0xFFFFFFFFFFFFFFFFFFFFFFFFFFFFFFFFFFFFFFFF AND PUSH1 0x4 SLOAD PUSH2 0x1CDF JUMP JUMPDEST PUSH1 0x3 PUSH1 0x0 SWAP1 SLOAD SWAP1 PUSH2 0x100 EXP SWAP1 DIV PUSH20 0xFFFFFFFFFFFFFFFFFFFFFFFFFFFFFFFFFFFFFFFF AND PUSH20 0xFFFFFFFFFFFFFFFFFFFFFFFFFFFFFFFFFFFFFFFF AND PUSH32 0x5B690EC4A06FE979403046EAEEA5B3CE38524683C3001F662C8B5A829632F7DF PUSH1 0x40 MLOAD PUSH1 0x40 MLOAD DUP1 SWAP2 SUB SWAP1 LOG2 POP PUSH2 0x1379 JUMP JUMPDEST PUSH1 0x0 PUSH32 0x0 PUSH20 0xFFFFFFFFFFFFFFFFFFFFFFFFFFFFFFFFFFFFFFFF AND PUSH4 0x5D3B1D30 PUSH32 0x0 PUSH32 0x0 PUSH1 0x3 PUSH32 0x0 PUSH1 0x1 PUSH1 0x40 MLOAD DUP7 PUSH4 0xFFFFFFFF AND PUSH1 0xE0 SHL DUP2 MSTORE PUSH1 0x4 ADD PUSH2 0x1304 SWAP6 SWAP5 SWAP4 SWAP3 SWAP2 SWAP1 PUSH2 0x28F3 JUMP JUMPDEST PUSH1 0x20 PUSH1 0x40 MLOAD DUP1 DUP4 SUB DUP2 PUSH1 0x0 DUP8 GAS CALL ISZERO DUP1 ISZERO PUSH2 0x1323 JUMPI RETURNDATASIZE PUSH1 0x0 DUP1 RETURNDATACOPY RETURNDATASIZE PUSH1 0x0 REVERT JUMPDEST POP POP POP POP PUSH1 0x40 MLOAD RETURNDATASIZE PUSH1 0x1F NOT PUSH1 0x1F DUP3 ADD AND DUP3 ADD DUP1 PUSH1 0x40 MSTORE POP DUP2 ADD SWAP1 PUSH2 0x1347 SWAP2 SWAP1 PUSH2 0x295B JUMP JUMPDEST SWAP1 POP DUP1 PUSH32 0xCD6E45C8998311CAB7E9D4385596CAC867E20A0587194B954FA3A731C93CE78B PUSH1 0x40 MLOAD PUSH1 0x40 MLOAD DUP1 SWAP2 SUB SWAP1 LOG2 POP POP JUMPDEST POP POP JUMP JUMPDEST PUSH1 0x0 PUSH1 0x3 PUSH1 0x0 SWAP1 SLOAD SWAP1 PUSH2 0x100 EXP SWAP1 DIV PUSH20 0xFFFFFFFFFFFFFFFFFFFFFFFFFFFFFFFFFFFFFFFF AND SWAP1 POP SWAP1 JUMP JUMPDEST PUSH1 0x0 PUSH1 0x7 PUSH1 0x0 DUP4 PUSH20 0xFFFFFFFFFFFFFFFFFFFFFFFFFFFFFFFFFFFFFFFF AND PUSH20 0xFFFFFFFFFFFFFFFFFFFFFFFFFFFFFFFFFFFFFFFF AND DUP2 MSTORE PUSH1 0x20 ADD SWAP1 DUP2 MSTORE PUSH1 0x20 ADD PUSH1 0x0 KECCAK256 SLOAD SWAP1 POP SWAP2 SWAP1 POP JUMP JUMPDEST PUSH1 0x0 PUSH1 0x1 PUSH4 0xFFFFFFFF AND SWAP1 POP SWAP1 JUMP JUMPDEST PUSH1 0x0 PUSH32 0x0 SWAP1 POP SWAP1 JUMP JUMPDEST PUSH1 0x0 PUSH1 0x3 PUSH2 0xFFFF AND SWAP1 POP SWAP1 JUMP JUMPDEST PUSH2 0x143C PUSH2 0x1C58 JUMP JUMPDEST PUSH1 0x2 DUP1 DUP2 GT ISZERO PUSH2 0x144F JUMPI PUSH2 0x144E PUSH2 0x1F2E JUMP JUMPDEST JUMPDEST PUSH1 0x6 PUSH1 0x0 SWAP1 SLOAD SWAP1 PUSH2 0x100 EXP SWAP1 DIV PUSH1 0xFF AND PUSH1 0x2 DUP2 GT ISZERO PUSH2 0x1471 JUMPI PUSH2 0x1470 PUSH2 0x1F2E JUMP JUMPDEST JUMPDEST EQ PUSH2 0x14D4 JUMPI PUSH1 0x6 PUSH1 0x0 SWAP1 SLOAD SWAP1 PUSH2 0x100 EXP SWAP1 DIV PUSH1 0xFF AND PUSH1 0x2 DUP2 GT ISZERO PUSH2 0x1498 JUMPI PUSH2 0x1497 PUSH2 0x1F2E JUMP JUMPDEST JUMPDEST PUSH1 0x40 MLOAD PUSH32 0x66BD08C500000000000000000000000000000000000000000000000000000000 DUP2 MSTORE PUSH1 0x4 ADD PUSH2 0x14CB SWAP2 SWAP1 PUSH2 0x1F13 JUMP JUMPDEST PUSH1 0x40 MLOAD DUP1 SWAP2 SUB SWAP1 REVERT JUMPDEST DUP1 PUSH1 0x1 DUP2 SWAP1 SSTORE POP POP JUMP JUMPDEST PUSH1 0x0 PUSH1 0x4 SLOAD SWAP1 POP SWAP1 JUMP JUMPDEST PUSH1 0x0 PUSH1 0x60 PUSH1 0x0 DUP1 PUSH1 0x2 DUP2 GT ISZERO PUSH2 0x1501 JUMPI PUSH2 0x1500 PUSH2 0x1F2E JUMP JUMPDEST JUMPDEST PUSH1 0x6 PUSH1 0x0 SWAP1 SLOAD SWAP1 PUSH2 0x100 EXP SWAP1 DIV PUSH1 0xFF AND PUSH1 0x2 DUP2 GT ISZERO PUSH2 0x1523 JUMPI PUSH2 0x1522 PUSH2 0x1F2E JUMP JUMPDEST JUMPDEST EQ SWAP1 POP PUSH1 0x0 PUSH1 0x1 SLOAD PUSH1 0x2 SLOAD TIMESTAMP PUSH2 0x1539 SWAP2 SWAP1 PUSH2 0x2802 JUMP JUMPDEST GT SWAP1 POP DUP2 DUP1 ISZERO PUSH2 0x1546 JUMPI POP DUP1 JUMPDEST SWAP4 POP DUP4 PUSH1 0x40 MLOAD DUP1 PUSH1 0x40 ADD PUSH1 0x40 MSTORE DUP1 PUSH1 0x3 DUP2 MSTORE PUSH1 0x20 ADD PUSH32 0x3078300000000000000000000000000000000000000000000000000000000000 DUP2 MSTORE POP SWAP4 POP SWAP4 POP POP POP SWAP2 POP SWAP2 JUMP JUMPDEST PUSH2 0x1592 PUSH2 0x1C58 JUMP JUMPDEST PUSH2 0x159C PUSH1 0x0 PUSH2 0x1D87 JUMP JUMPDEST JUMP JUMPDEST PUSH1 0x60 PUSH1 0x5 DUP1 SLOAD DUP1 PUSH1 0x20 MUL PUSH1 0x20 ADD PUSH1 0x40 MLOAD SWAP1 DUP2 ADD PUSH1 0x40 MSTORE DUP1 SWAP3 SWAP2 SWAP1 DUP2 DUP2 MSTORE PUSH1 0x20 ADD DUP3 DUP1 SLOAD DUP1 ISZERO PUSH2 0x1622 JUMPI PUSH1 0x20 MUL DUP3 ADD SWAP2 SWAP1 PUSH1 0x0 MSTORE PUSH1 0x20 PUSH1 0x0 KECCAK256 SWAP1 JUMPDEST DUP2 PUSH1 0x0 SWAP1 SLOAD SWAP1 PUSH2 0x100 EXP SWAP1 DIV PUSH20 0xFFFFFFFFFFFFFFFFFFFFFFFFFFFFFFFFFFFFFFFF AND PUSH20 0xFFFFFFFFFFFFFFFFFFFFFFFFFFFFFFFFFFFFFFFF AND DUP2 MSTORE PUSH1 0x20 ADD SWAP1 PUSH1 0x1 ADD SWAP1 DUP1 DUP4 GT PUSH2 0x15D8 JUMPI JUMPDEST POP POP POP POP POP SWAP1 POP SWAP1 JUMP JUMPDEST PUSH1 0x0 DUP1 PUSH1 0x0 SWAP1 SLOAD SWAP1 PUSH2 0x100 EXP SWAP1 DIV PUSH20 0xFFFFFFFFFFFFFFFFFFFFFFFFFFFFFFFFFFFFFFFF AND SWAP1 POP SWAP1 JUMP JUMPDEST PUSH1 0x0 PUSH1 0x1 SLOAD SWAP1 POP SWAP1 JUMP JUMPDEST PUSH1 0x0 PUSH1 0x5 DUP1 SLOAD SWAP1 POP SWAP1 POP SWAP1 JUMP JUMPDEST PUSH1 0x0 PUSH1 0x2 SLOAD SWAP1 POP SWAP1 JUMP JUMPDEST PUSH1 0x0 PUSH1 0x5 DUP3 DUP2 SLOAD DUP2 LT PUSH2 0x168C JUMPI PUSH2 0x168B PUSH2 0x2791 JUMP JUMPDEST JUMPDEST SWAP1 PUSH1 0x0 MSTORE PUSH1 0x20 PUSH1 0x0 KECCAK256 ADD PUSH1 0x0 SWAP1 SLOAD SWAP1 PUSH2 0x100 EXP SWAP1 DIV PUSH20 0xFFFFFFFFFFFFFFFFFFFFFFFFFFFFFFFFFFFFFFFF AND SWAP1 POP SWAP2 SWAP1 POP JUMP JUMPDEST PUSH2 0x16C6 PUSH2 0x1C58 JUMP JUMPDEST PUSH1 0x0 PUSH1 0x2 DUP2 GT ISZERO PUSH2 0x16DA JUMPI PUSH2 0x16D9 PUSH2 0x1F2E JUMP JUMPDEST JUMPDEST PUSH1 0x6 PUSH1 0x0 SWAP1 SLOAD SWAP1 PUSH2 0x100 EXP SWAP1 DIV PUSH1 0xFF AND PUSH1 0x2 DUP2 GT ISZERO PUSH2 0x16FC JUMPI PUSH2 0x16FB PUSH2 0x1F2E JUMP JUMPDEST JUMPDEST EQ ISZERO DUP1 PUSH2 0x170E JUMPI POP PUSH1 0x0 PUSH1 0x5 DUP1 SLOAD SWAP1 POP GT JUMPDEST DUP1 PUSH2 0x1719 JUMPI POP PUSH1 0x0 SELFBALANCE GT JUMPDEST ISZERO PUSH2 0x1787 JUMPI CALLER SELFBALANCE PUSH1 0x5 DUP1 SLOAD SWAP1 POP PUSH1 0x6 PUSH1 0x0 SWAP1 SLOAD SWAP1 PUSH2 0x100 EXP SWAP1 DIV PUSH1 0xFF AND PUSH1 0x2 DUP2 GT ISZERO PUSH2 0x1748 JUMPI PUSH2 0x1747 PUSH2 0x1F2E JUMP JUMPDEST JUMPDEST PUSH1 0x40 MLOAD PUSH32 0x760415B500000000000000000000000000000000000000000000000000000000 DUP2 MSTORE PUSH1 0x4 ADD PUSH2 0x177E SWAP5 SWAP4 SWAP3 SWAP2 SWAP1 PUSH2 0x2610 JUMP JUMPDEST PUSH1 0x40 MLOAD DUP1 SWAP2 SUB SWAP1 REVERT JUMPDEST PUSH1 0x2 PUSH1 0x6 PUSH1 0x0 PUSH2 0x100 EXP DUP2 SLOAD DUP2 PUSH1 0xFF MUL NOT AND SWAP1 DUP4 PUSH1 0x2 DUP2 GT ISZERO PUSH2 0x17AD JUMPI PUSH2 0x17AC PUSH2 0x1F2E JUMP JUMPDEST JUMPDEST MUL OR SWAP1 SSTORE POP PUSH1 0x6 PUSH1 0x0 SWAP1 SLOAD SWAP1 PUSH2 0x100 EXP SWAP1 DIV PUSH1 0xFF AND PUSH1 0x2 DUP2 GT ISZERO PUSH2 0x17D4 JUMPI PUSH2 0x17D3 PUSH2 0x1F2E JUMP JUMPDEST JUMPDEST PUSH32 0xE80780B6EFDB52AB57A7F583FDFC286B925CADDDA150DCA6A95BAA3F0CFB591C PUSH1 0x40 MLOAD PUSH1 0x40 MLOAD DUP1 SWAP2 SUB SWAP1 LOG2 JUMP JUMPDEST PUSH2 0x180A PUSH2 0x1C58 JUMP JUMPDEST PUSH1 0x0 PUSH20 0xFFFFFFFFFFFFFFFFFFFFFFFFFFFFFFFFFFFFFFFF AND DUP2 PUSH20 0xFFFFFFFFFFFFFFFFFFFFFFFFFFFFFFFFFFFFFFFF AND SUB PUSH2 0x187C JUMPI PUSH1 0x0 PUSH1 0x40 MLOAD PUSH32 0x1E4FBDF700000000000000000000000000000000000000000000000000000000 DUP2 MSTORE PUSH1 0x4 ADD PUSH2 0x1873 SWAP2 SWAP1 PUSH2 0x229E JUMP JUMPDEST PUSH1 0x40 MLOAD DUP1 SWAP2 SUB SWAP1 REVERT JUMPDEST PUSH2 0x1885 DUP2 PUSH2 0x1D87 JUMP JUMPDEST POP JUMP JUMPDEST PUSH1 0x0 PUSH1 0x9 SLOAD SWAP1 POP SWAP1 JUMP JUMPDEST PUSH1 0x0 PUSH1 0x5 DUP1 SLOAD SWAP1 POP DUP3 PUSH1 0x0 DUP2 MLOAD DUP2 LT PUSH2 0x18AE JUMPI PUSH2 0x18AD PUSH2 0x2791 JUMP JUMPDEST JUMPDEST PUSH1 0x20 MUL PUSH1 0x20 ADD ADD MLOAD PUSH2 0x18C0 SWAP2 SWAP1 PUSH2 0x2684 JUMP JUMPDEST SWAP1 POP PUSH1 0x0 PUSH1 0x5 DUP3 DUP2 SLOAD DUP2 LT PUSH2 0x18D8 JUMPI PUSH2 0x18D7 PUSH2 0x2791 JUMP JUMPDEST JUMPDEST SWAP1 PUSH1 0x0 MSTORE PUSH1 0x20 PUSH1 0x0 KECCAK256 ADD PUSH1 0x0 SWAP1 SLOAD SWAP1 PUSH2 0x100 EXP SWAP1 DIV PUSH20 0xFFFFFFFFFFFFFFFFFFFFFFFFFFFFFFFFFFFFFFFF AND SWAP1 POP DUP1 PUSH1 0x3 PUSH1 0x0 PUSH2 0x100 EXP DUP2 SLOAD DUP2 PUSH20 0xFFFFFFFFFFFFFFFFFFFFFFFFFFFFFFFFFFFFFFFF MUL NOT AND SWAP1 DUP4 PUSH20 0xFFFFFFFFFFFFFFFFFFFFFFFFFFFFFFFFFFFFFFFF AND MUL OR SWAP1 SSTORE POP PUSH1 0x0 JUMPDEST PUSH1 0x5 DUP1 SLOAD SWAP1 POP DUP2 LT ISZERO PUSH2 0x1B08 JUMPI PUSH1 0x8 PUSH1 0x0 PUSH1 0x5 DUP4 DUP2 SLOAD DUP2 LT PUSH2 0x196E JUMPI PUSH2 0x196D PUSH2 0x2791 JUMP JUMPDEST JUMPDEST SWAP1 PUSH1 0x0 MSTORE PUSH1 0x20 PUSH1 0x0 KECCAK256 ADD PUSH1 0x0 SWAP1 SLOAD SWAP1 PUSH2 0x100 EXP SWAP1 DIV PUSH20 0xFFFFFFFFFFFFFFFFFFFFFFFFFFFFFFFFFFFFFFFF AND PUSH20 0xFFFFFFFFFFFFFFFFFFFFFFFFFFFFFFFFFFFFFFFF AND PUSH20 0xFFFFFFFFFFFFFFFFFFFFFFFFFFFFFFFFFFFFFFFF AND DUP2 MSTORE PUSH1 0x20 ADD SWAP1 DUP2 MSTORE PUSH1 0x20 ADD PUSH1 0x0 KECCAK256 PUSH1 0x0 SWAP1 SLOAD SWAP1 PUSH2 0x100 EXP SWAP1 DIV PUSH1 0xFF AND ISZERO PUSH2 0x1AF5 JUMPI PUSH1 0x8 PUSH1 0x0 PUSH1 0x5 DUP4 DUP2 SLOAD DUP2 LT PUSH2 0x19FE JUMPI PUSH2 0x19FD PUSH2 0x2791 JUMP JUMPDEST JUMPDEST SWAP1 PUSH1 0x0 MSTORE PUSH1 0x20 PUSH1 0x0 KECCAK256 ADD PUSH1 0x0 SWAP1 SLOAD SWAP1 PUSH2 0x100 EXP SWAP1 DIV PUSH20 0xFFFFFFFFFFFFFFFFFFFFFFFFFFFFFFFFFFFFFFFF AND PUSH20 0xFFFFFFFFFFFFFFFFFFFFFFFFFFFFFFFFFFFFFFFF AND PUSH20 0xFFFFFFFFFFFFFFFFFFFFFFFFFFFFFFFFFFFFFFFF AND DUP2 MSTORE PUSH1 0x20 ADD SWAP1 DUP2 MSTORE PUSH1 0x20 ADD PUSH1 0x0 KECCAK256 PUSH1 0x0 PUSH2 0x100 EXP DUP2 SLOAD SWAP1 PUSH1 0xFF MUL NOT AND SWAP1 SSTORE PUSH1 0x7 PUSH1 0x0 PUSH1 0x5 DUP4 DUP2 SLOAD DUP2 LT PUSH2 0x1A8B JUMPI PUSH2 0x1A8A PUSH2 0x2791 JUMP JUMPDEST JUMPDEST SWAP1 PUSH1 0x0 MSTORE PUSH1 0x20 PUSH1 0x0 KECCAK256 ADD PUSH1 0x0 SWAP1 SLOAD SWAP1 PUSH2 0x100 EXP SWAP1 DIV PUSH20 0xFFFFFFFFFFFFFFFFFFFFFFFFFFFFFFFFFFFFFFFF AND PUSH20 0xFFFFFFFFFFFFFFFFFFFFFFFFFFFFFFFFFFFFFFFF AND PUSH20 0xFFFFFFFFFFFFFFFFFFFFFFFFFFFFFFFFFFFFFFFF AND DUP2 MSTORE PUSH1 0x20 ADD SWAP1 DUP2 MSTORE PUSH1 0x20 ADD PUSH1 0x0 KECCAK256 PUSH1 0x0 SWAP1 SSTORE JUMPDEST DUP1 DUP1 PUSH2 0x1B00 SWAP1 PUSH2 0x2749 JUMP JUMPDEST SWAP2 POP POP PUSH2 0x1949 JUMP JUMPDEST POP PUSH1 0x0 PUSH8 0xFFFFFFFFFFFFFFFF DUP2 GT ISZERO PUSH2 0x1B24 JUMPI PUSH2 0x1B23 PUSH2 0x2016 JUMP JUMPDEST JUMPDEST PUSH1 0x40 MLOAD SWAP1 DUP1 DUP3 MSTORE DUP1 PUSH1 0x20 MUL PUSH1 0x20 ADD DUP3 ADD PUSH1 0x40 MSTORE DUP1 ISZERO PUSH2 0x1B52 JUMPI DUP2 PUSH1 0x20 ADD PUSH1 0x20 DUP3 MUL DUP1 CALLDATASIZE DUP4 CALLDATACOPY DUP1 DUP3 ADD SWAP2 POP POP SWAP1 POP JUMPDEST POP PUSH1 0x5 SWAP1 DUP1 MLOAD SWAP1 PUSH1 0x20 ADD SWAP1 PUSH2 0x1B68 SWAP3 SWAP2 SWAP1 PUSH2 0x1E53 JUMP JUMPDEST POP PUSH1 0x0 PUSH1 0x9 DUP2 SWAP1 SSTORE POP PUSH1 0x0 PUSH1 0x6 PUSH1 0x0 PUSH2 0x100 EXP DUP2 SLOAD DUP2 PUSH1 0xFF MUL NOT AND SWAP1 DUP4 PUSH1 0x2 DUP2 GT ISZERO PUSH2 0x1B97 JUMPI PUSH2 0x1B96 PUSH2 0x1F2E JUMP JUMPDEST JUMPDEST MUL OR SWAP1 SSTORE POP TIMESTAMP PUSH1 0x2 DUP2 SWAP1 SSTORE POP PUSH1 0x0 PUSH1 0x64 PUSH32 0x0 SELFBALANCE PUSH2 0x1BD3 SWAP2 SWAP1 PUSH2 0x27C0 JUMP JUMPDEST PUSH2 0x1BDD SWAP2 SWAP1 PUSH2 0x26E4 JUMP JUMPDEST SWAP1 POP DUP1 SELFBALANCE PUSH2 0x1BEB SWAP2 SWAP1 PUSH2 0x2802 JUMP JUMPDEST PUSH1 0x4 DUP2 SWAP1 SSTORE POP PUSH2 0x1C02 PUSH2 0x1BFC PUSH2 0x162C JUMP JUMPDEST DUP3 PUSH2 0x1CDF JUMP JUMPDEST PUSH2 0x1C0E DUP3 PUSH1 0x4 SLOAD PUSH2 0x1CDF JUMP JUMPDEST DUP2 PUSH20 0xFFFFFFFFFFFFFFFFFFFFFFFFFFFFFFFFFFFFFFFF AND PUSH32 0x5B690EC4A06FE979403046EAEEA5B3CE38524683C3001F662C8B5A829632F7DF PUSH1 0x40 MLOAD PUSH1 0x40 MLOAD DUP1 SWAP2 SUB SWAP1 LOG2 POP POP POP POP POP JUMP JUMPDEST PUSH2 0x1C60 PUSH2 0x1E4B JUMP JUMPDEST PUSH20 0xFFFFFFFFFFFFFFFFFFFFFFFFFFFFFFFFFFFFFFFF AND PUSH2 0x1C7E PUSH2 0x162C JUMP JUMPDEST PUSH20 0xFFFFFFFFFFFFFFFFFFFFFFFFFFFFFFFFFFFFFFFF AND EQ PUSH2 0x1CDD JUMPI PUSH2 0x1CA1 PUSH2 0x1E4B JUMP JUMPDEST PUSH1 0x40 MLOAD PUSH32 0x118CDAA700000000000000000000000000000000000000000000000000000000 DUP2 MSTORE PUSH1 0x4 ADD PUSH2 0x1CD4 SWAP2 SWAP1 PUSH2 0x229E JUMP JUMPDEST PUSH1 0x40 MLOAD DUP1 SWAP2 SUB SWAP1 REVERT JUMPDEST JUMP JUMPDEST PUSH1 0x0 DUP3 PUSH20 0xFFFFFFFFFFFFFFFFFFFFFFFFFFFFFFFFFFFFFFFF AND DUP3 PUSH1 0x40 MLOAD PUSH2 0x1D05 SWAP1 PUSH2 0x29B9 JUMP JUMPDEST PUSH1 0x0 PUSH1 0x40 MLOAD DUP1 DUP4 SUB DUP2 DUP6 DUP8 GAS CALL SWAP3 POP POP POP RETURNDATASIZE DUP1 PUSH1 0x0 DUP2 EQ PUSH2 0x1D42 JUMPI PUSH1 0x40 MLOAD SWAP2 POP PUSH1 0x1F NOT PUSH1 0x3F RETURNDATASIZE ADD AND DUP3 ADD PUSH1 0x40 MSTORE RETURNDATASIZE DUP3 MSTORE RETURNDATASIZE PUSH1 0x0 PUSH1 0x20 DUP5 ADD RETURNDATACOPY PUSH2 0x1D47 JUMP JUMPDEST PUSH1 0x60 SWAP2 POP JUMPDEST POP POP SWAP1 POP DUP1 PUSH2 0x1D82 JUMPI PUSH1 0x40 MLOAD PUSH32 0xA1D04B3900000000000000000000000000000000000000000000000000000000 DUP2 MSTORE PUSH1 0x4 ADD PUSH1 0x40 MLOAD DUP1 SWAP2 SUB SWAP1 REVERT JUMPDEST POP POP POP JUMP JUMPDEST PUSH1 0x0 DUP1 PUSH1 0x0 SWAP1 SLOAD SWAP1 PUSH2 0x100 EXP SWAP1 DIV PUSH20 0xFFFFFFFFFFFFFFFFFFFFFFFFFFFFFFFFFFFFFFFF AND SWAP1 POP DUP2 PUSH1 0x0 DUP1 PUSH2 0x100 EXP DUP2 SLOAD DUP2 PUSH20 0xFFFFFFFFFFFFFFFFFFFFFFFFFFFFFFFFFFFFFFFF MUL NOT AND SWAP1 DUP4 PUSH20 0xFFFFFFFFFFFFFFFFFFFFFFFFFFFFFFFFFFFFFFFF AND MUL OR SWAP1 SSTORE POP DUP2 PUSH20 0xFFFFFFFFFFFFFFFFFFFFFFFFFFFFFFFFFFFFFFFF AND DUP2 PUSH20 0xFFFFFFFFFFFFFFFFFFFFFFFFFFFFFFFFFFFFFFFF AND PUSH32 0x8BE0079C531659141344CD1FD0A4F28419497F9722A3DAAFE3B4186F6B6457E0 PUSH1 0x40 MLOAD PUSH1 0x40 MLOAD DUP1 SWAP2 SUB SWAP1 LOG3 POP POP JUMP JUMPDEST PUSH1 0x0 CALLER SWAP1 POP SWAP1 JUMP JUMPDEST DUP3 DUP1 SLOAD DUP3 DUP3 SSTORE SWAP1 PUSH1 0x0 MSTORE PUSH1 0x20 PUSH1 0x0 KECCAK256 SWAP1 DUP2 ADD SWAP3 DUP3 ISZERO PUSH2 0x1ECC JUMPI SWAP2 PUSH1 0x20 MUL DUP3 ADD JUMPDEST DUP3 DUP2 GT ISZERO PUSH2 0x1ECB JUMPI DUP3 MLOAD DUP3 PUSH1 0x0 PUSH2 0x100 EXP DUP2 SLOAD DUP2 PUSH20 0xFFFFFFFFFFFFFFFFFFFFFFFFFFFFFFFFFFFFFFFF MUL NOT AND SWAP1 DUP4 PUSH20 0xFFFFFFFFFFFFFFFFFFFFFFFFFFFFFFFFFFFFFFFF AND MUL OR SWAP1 SSTORE POP SWAP2 PUSH1 0x20 ADD SWAP2 SWAP1 PUSH1 0x1 ADD SWAP1 PUSH2 0x1E73 JUMP JUMPDEST JUMPDEST POP SWAP1 POP PUSH2 0x1ED9 SWAP2 SWAP1 PUSH2 0x1EDD JUMP JUMPDEST POP SWAP1 JUMP JUMPDEST JUMPDEST DUP1 DUP3 GT ISZERO PUSH2 0x1EF6 JUMPI PUSH1 0x0 DUP2 PUSH1 0x0 SWAP1 SSTORE POP PUSH1 0x1 ADD PUSH2 0x1EDE JUMP JUMPDEST POP SWAP1 JUMP JUMPDEST PUSH1 0x0 DUP2 SWAP1 POP SWAP2 SWAP1 POP JUMP JUMPDEST PUSH2 0x1F0D DUP2 PUSH2 0x1EFA JUMP JUMPDEST DUP3 MSTORE POP POP JUMP JUMPDEST PUSH1 0x0 PUSH1 0x20 DUP3 ADD SWAP1 POP PUSH2 0x1F28 PUSH1 0x0 DUP4 ADD DUP5 PUSH2 0x1F04 JUMP JUMPDEST SWAP3 SWAP2 POP POP JUMP JUMPDEST PUSH32 0x4E487B7100000000000000000000000000000000000000000000000000000000 PUSH1 0x0 MSTORE PUSH1 0x21 PUSH1 0x4 MSTORE PUSH1 0x24 PUSH1 0x0 REVERT JUMPDEST PUSH1 0x3 DUP2 LT PUSH2 0x1F6E JUMPI PUSH2 0x1F6D PUSH2 0x1F2E JUMP JUMPDEST JUMPDEST POP JUMP JUMPDEST PUSH1 0x0 DUP2 SWAP1 POP PUSH2 0x1F7F DUP3 PUSH2 0x1F5D JUMP JUMPDEST SWAP2 SWAP1 POP JUMP JUMPDEST PUSH1 0x0 PUSH2 0x1F8F DUP3 PUSH2 0x1F71 JUMP JUMPDEST SWAP1 POP SWAP2 SWAP1 POP JUMP JUMPDEST PUSH2 0x1F9F DUP2 PUSH2 0x1F84 JUMP JUMPDEST DUP3 MSTORE POP POP JUMP JUMPDEST PUSH1 0x0 PUSH1 0x20 DUP3 ADD SWAP1 POP PUSH2 0x1FBA PUSH1 0x0 DUP4 ADD DUP5 PUSH2 0x1F96 JUMP JUMPDEST SWAP3 SWAP2 POP POP JUMP JUMPDEST PUSH1 0x0 PUSH1 0x40 MLOAD SWAP1 POP SWAP1 JUMP JUMPDEST PUSH1 0x0 DUP1 REVERT JUMPDEST PUSH1 0x0 DUP1 REVERT JUMPDEST PUSH2 0x1FDD DUP2 PUSH2 0x1EFA JUMP JUMPDEST DUP2 EQ PUSH2 0x1FE8 JUMPI PUSH1 0x0 DUP1 REVERT JUMPDEST POP JUMP JUMPDEST PUSH1 0x0 DUP2 CALLDATALOAD SWAP1 POP PUSH2 0x1FFA DUP2 PUSH2 0x1FD4 JUMP JUMPDEST SWAP3 SWAP2 POP POP JUMP JUMPDEST PUSH1 0x0 DUP1 REVERT JUMPDEST PUSH1 0x0 PUSH1 0x1F NOT PUSH1 0x1F DUP4 ADD AND SWAP1 POP SWAP2 SWAP1 POP JUMP JUMPDEST PUSH32 0x4E487B7100000000000000000000000000000000000000000000000000000000 PUSH1 0x0 MSTORE PUSH1 0x41 PUSH1 0x4 MSTORE PUSH1 0x24 PUSH1 0x0 REVERT JUMPDEST PUSH2 0x204E DUP3 PUSH2 0x2005 JUMP JUMPDEST DUP2 ADD DUP2 DUP2 LT PUSH8 0xFFFFFFFFFFFFFFFF DUP3 GT OR ISZERO PUSH2 0x206D JUMPI PUSH2 0x206C PUSH2 0x2016 JUMP JUMPDEST JUMPDEST DUP1 PUSH1 0x40 MSTORE POP POP POP JUMP JUMPDEST PUSH1 0x0 PUSH2 0x2080 PUSH2 0x1FC0 JUMP JUMPDEST SWAP1 POP PUSH2 0x208C DUP3 DUP3 PUSH2 0x2045 JUMP JUMPDEST SWAP2 SWAP1 POP JUMP JUMPDEST PUSH1 0x0 PUSH8 0xFFFFFFFFFFFFFFFF DUP3 GT ISZERO PUSH2 0x20AC JUMPI PUSH2 0x20AB PUSH2 0x2016 JUMP JUMPDEST JUMPDEST PUSH1 0x20 DUP3 MUL SWAP1 POP PUSH1 0x20 DUP2 ADD SWAP1 POP SWAP2 SWAP1 POP JUMP JUMPDEST PUSH1 0x0 DUP1 REVERT JUMPDEST PUSH1 0x0 PUSH2 0x20D5 PUSH2 0x20D0 DUP5 PUSH2 0x2091 JUMP JUMPDEST PUSH2 0x2076 JUMP JUMPDEST SWAP1 POP DUP1 DUP4 DUP3 MSTORE PUSH1 0x20 DUP3 ADD SWAP1 POP PUSH1 0x20 DUP5 MUL DUP4 ADD DUP6 DUP2 GT ISZERO PUSH2 0x20F8 JUMPI PUSH2 0x20F7 PUSH2 0x20BD JUMP JUMPDEST JUMPDEST DUP4 JUMPDEST DUP2 DUP2 LT ISZERO PUSH2 0x2121 JUMPI DUP1 PUSH2 0x210D DUP9 DUP3 PUSH2 0x1FEB JUMP JUMPDEST DUP5 MSTORE PUSH1 0x20 DUP5 ADD SWAP4 POP POP PUSH1 0x20 DUP2 ADD SWAP1 POP PUSH2 0x20FA JUMP JUMPDEST POP POP POP SWAP4 SWAP3 POP POP POP JUMP JUMPDEST PUSH1 0x0 DUP3 PUSH1 0x1F DUP4 ADD SLT PUSH2 0x2140 JUMPI PUSH2 0x213F PUSH2 0x2000 JUMP JUMPDEST JUMPDEST DUP2 CALLDATALOAD PUSH2 0x2150 DUP5 DUP3 PUSH1 0x20 DUP7 ADD PUSH2 0x20C2 JUMP JUMPDEST SWAP2 POP POP SWAP3 SWAP2 POP POP JUMP JUMPDEST PUSH1 0x0 DUP1 PUSH1 0x40 DUP4 DUP6 SUB SLT ISZERO PUSH2 0x2170 JUMPI PUSH2 0x216F PUSH2 0x1FCA JUMP JUMPDEST JUMPDEST PUSH1 0x0 PUSH2 0x217E DUP6 DUP3 DUP7 ADD PUSH2 0x1FEB JUMP JUMPDEST SWAP3 POP POP PUSH1 0x20 DUP4 ADD CALLDATALOAD PUSH8 0xFFFFFFFFFFFFFFFF DUP2 GT ISZERO PUSH2 0x219F JUMPI PUSH2 0x219E PUSH2 0x1FCF JUMP JUMPDEST JUMPDEST PUSH2 0x21AB DUP6 DUP3 DUP7 ADD PUSH2 0x212B JUMP JUMPDEST SWAP2 POP POP SWAP3 POP SWAP3 SWAP1 POP JUMP JUMPDEST PUSH1 0x0 DUP1 REVERT JUMPDEST PUSH1 0x0 DUP1 DUP4 PUSH1 0x1F DUP5 ADD SLT PUSH2 0x21D0 JUMPI PUSH2 0x21CF PUSH2 0x2000 JUMP JUMPDEST JUMPDEST DUP3 CALLDATALOAD SWAP1 POP PUSH8 0xFFFFFFFFFFFFFFFF DUP2 GT ISZERO PUSH2 0x21ED JUMPI PUSH2 0x21EC PUSH2 0x21B5 JUMP JUMPDEST JUMPDEST PUSH1 0x20 DUP4 ADD SWAP2 POP DUP4 PUSH1 0x1 DUP3 MUL DUP4 ADD GT ISZERO PUSH2 0x2209 JUMPI PUSH2 0x2208 PUSH2 0x20BD JUMP JUMPDEST JUMPDEST SWAP3 POP SWAP3 SWAP1 POP JUMP JUMPDEST PUSH1 0x0 DUP1 PUSH1 0x20 DUP4 DUP6 SUB SLT ISZERO PUSH2 0x2227 JUMPI PUSH2 0x2226 PUSH2 0x1FCA JUMP JUMPDEST JUMPDEST PUSH1 0x0 DUP4 ADD CALLDATALOAD PUSH8 0xFFFFFFFFFFFFFFFF DUP2 GT ISZERO PUSH2 0x2245 JUMPI PUSH2 0x2244 PUSH2 0x1FCF JUMP JUMPDEST JUMPDEST PUSH2 0x2251 DUP6 DUP3 DUP7 ADD PUSH2 0x21BA JUMP JUMPDEST SWAP3 POP SWAP3 POP POP SWAP3 POP SWAP3 SWAP1 POP JUMP JUMPDEST PUSH1 0x0 PUSH20 0xFFFFFFFFFFFFFFFFFFFFFFFFFFFFFFFFFFFFFFFF DUP3 AND SWAP1 POP SWAP2 SWAP1 POP JUMP JUMPDEST PUSH1 0x0 PUSH2 0x2288 DUP3 PUSH2 0x225D JUMP JUMPDEST SWAP1 POP SWAP2 SWAP1 POP JUMP JUMPDEST PUSH2 0x2298 DUP2 PUSH2 0x227D JUMP JUMPDEST DUP3 MSTORE POP POP JUMP JUMPDEST PUSH1 0x0 PUSH1 0x20 DUP3 ADD SWAP1 POP PUSH2 0x22B3 PUSH1 0x0 DUP4 ADD DUP5 PUSH2 0x228F JUMP JUMPDEST SWAP3 SWAP2 POP POP JUMP JUMPDEST PUSH2 0x22C2 DUP2 PUSH2 0x227D JUMP JUMPDEST DUP2 EQ PUSH2 0x22CD JUMPI PUSH1 0x0 DUP1 REVERT JUMPDEST POP JUMP JUMPDEST PUSH1 0x0 DUP2 CALLDATALOAD SWAP1 POP PUSH2 0x22DF DUP2 PUSH2 0x22B9 JUMP JUMPDEST SWAP3 SWAP2 POP POP JUMP JUMPDEST PUSH1 0x0 PUSH1 0x20 DUP3 DUP5 SUB SLT ISZERO PUSH2 0x22FB JUMPI PUSH2 0x22FA PUSH2 0x1FCA JUMP JUMPDEST JUMPDEST PUSH1 0x0 PUSH2 0x2309 DUP5 DUP3 DUP6 ADD PUSH2 0x22D0 JUMP JUMPDEST SWAP2 POP POP SWAP3 SWAP2 POP POP JUMP JUMPDEST PUSH1 0x0 PUSH1 0x20 DUP3 DUP5 SUB SLT ISZERO PUSH2 0x2328 JUMPI PUSH2 0x2327 PUSH2 0x1FCA JUMP JUMPDEST JUMPDEST PUSH1 0x0 PUSH2 0x2336 DUP5 DUP3 DUP6 ADD PUSH2 0x1FEB JUMP JUMPDEST SWAP2 POP POP SWAP3 SWAP2 POP POP JUMP JUMPDEST PUSH1 0x0 DUP1 REVERT JUMPDEST PUSH1 0x0 PUSH8 0xFFFFFFFFFFFFFFFF DUP3 GT ISZERO PUSH2 0x235F JUMPI PUSH2 0x235E PUSH2 0x2016 JUMP JUMPDEST JUMPDEST PUSH2 0x2368 DUP3 PUSH2 0x2005 JUMP JUMPDEST SWAP1 POP PUSH1 0x20 DUP2 ADD SWAP1 POP SWAP2 SWAP1 POP JUMP JUMPDEST DUP3 DUP2 DUP4 CALLDATACOPY PUSH1 0x0 DUP4 DUP4 ADD MSTORE POP POP POP JUMP JUMPDEST PUSH1 0x0 PUSH2 0x2397 PUSH2 0x2392 DUP5 PUSH2 0x2344 JUMP JUMPDEST PUSH2 0x2076 JUMP JUMPDEST SWAP1 POP DUP3 DUP2 MSTORE PUSH1 0x20 DUP2 ADD DUP5 DUP5 DUP5 ADD GT ISZERO PUSH2 0x23B3 JUMPI PUSH2 0x23B2 PUSH2 0x233F JUMP JUMPDEST JUMPDEST PUSH2 0x23BE DUP5 DUP3 DUP6 PUSH2 0x2375 JUMP JUMPDEST POP SWAP4 SWAP3 POP POP POP JUMP JUMPDEST PUSH1 0x0 DUP3 PUSH1 0x1F DUP4 ADD SLT PUSH2 0x23DB JUMPI PUSH2 0x23DA PUSH2 0x2000 JUMP JUMPDEST JUMPDEST DUP2 CALLDATALOAD PUSH2 0x23EB DUP5 DUP3 PUSH1 0x20 DUP7 ADD PUSH2 0x2384 JUMP JUMPDEST SWAP2 POP POP SWAP3 SWAP2 POP POP JUMP JUMPDEST PUSH1 0x0 PUSH1 0x20 DUP3 DUP5 SUB SLT ISZERO PUSH2 0x240A JUMPI PUSH2 0x2409 PUSH2 0x1FCA JUMP JUMPDEST JUMPDEST PUSH1 0x0 DUP3 ADD CALLDATALOAD PUSH8 0xFFFFFFFFFFFFFFFF DUP2 GT ISZERO PUSH2 0x2428 JUMPI PUSH2 0x2427 PUSH2 0x1FCF JUMP JUMPDEST JUMPDEST PUSH2 0x2434 DUP5 DUP3 DUP6 ADD PUSH2 0x23C6 JUMP JUMPDEST SWAP2 POP POP SWAP3 SWAP2 POP POP JUMP JUMPDEST PUSH1 0x0 DUP2 ISZERO ISZERO SWAP1 POP SWAP2 SWAP1 POP JUMP JUMPDEST PUSH2 0x2452 DUP2 PUSH2 0x243D JUMP JUMPDEST DUP3 MSTORE POP POP JUMP JUMPDEST PUSH1 0x0 DUP2 MLOAD SWAP1 POP SWAP2 SWAP1 POP JUMP JUMPDEST PUSH1 0x0 DUP3 DUP3 MSTORE PUSH1 0x20 DUP3 ADD SWAP1 POP SWAP3 SWAP2 POP POP JUMP JUMPDEST PUSH1 0x0 JUMPDEST DUP4 DUP2 LT ISZERO PUSH2 0x2492 JUMPI DUP1 DUP3 ADD MLOAD DUP2 DUP5 ADD MSTORE PUSH1 0x20 DUP2 ADD SWAP1 POP PUSH2 0x2477 JUMP JUMPDEST PUSH1 0x0 DUP5 DUP5 ADD MSTORE POP POP POP POP JUMP JUMPDEST PUSH1 0x0 PUSH2 0x24A9 DUP3 PUSH2 0x2458 JUMP JUMPDEST PUSH2 0x24B3 DUP2 DUP6 PUSH2 0x2463 JUMP JUMPDEST SWAP4 POP PUSH2 0x24C3 DUP2 DUP6 PUSH1 0x20 DUP7 ADD PUSH2 0x2474 JUMP JUMPDEST PUSH2 0x24CC DUP2 PUSH2 0x2005 JUMP JUMPDEST DUP5 ADD SWAP2 POP POP SWAP3 SWAP2 POP POP JUMP JUMPDEST PUSH1 0x0 PUSH1 0x40 DUP3 ADD SWAP1 POP PUSH2 0x24EC PUSH1 0x0 DUP4 ADD DUP6 PUSH2 0x2449 JUMP JUMPDEST DUP2 DUP2 SUB PUSH1 0x20 DUP4 ADD MSTORE PUSH2 0x24FE DUP2 DUP5 PUSH2 0x249E JUMP JUMPDEST SWAP1 POP SWAP4 SWAP3 POP POP POP JUMP JUMPDEST PUSH1 0x0 DUP2 MLOAD SWAP1 POP SWAP2 SWAP1 POP JUMP JUMPDEST PUSH1 0x0 DUP3 DUP3 MSTORE PUSH1 0x20 DUP3 ADD SWAP1 POP SWAP3 SWAP2 POP POP JUMP JUMPDEST PUSH1 0x0 DUP2 SWAP1 POP PUSH1 0x20 DUP3 ADD SWAP1 POP SWAP2 SWAP1 POP JUMP JUMPDEST PUSH2 0x253C DUP2 PUSH2 0x227D JUMP JUMPDEST DUP3 MSTORE POP POP JUMP JUMPDEST PUSH1 0x0 PUSH2 0x254E DUP4 DUP4 PUSH2 0x2533 JUMP JUMPDEST PUSH1 0x20 DUP4 ADD SWAP1 POP SWAP3 SWAP2 POP POP JUMP JUMPDEST PUSH1 0x0 PUSH1 0x20 DUP3 ADD SWAP1 POP SWAP2 SWAP1 POP JUMP JUMPDEST PUSH1 0x0 PUSH2 0x2572 DUP3 PUSH2 0x2507 JUMP JUMPDEST PUSH2 0x257C DUP2 DUP6 PUSH2 0x2512 JUMP JUMPDEST SWAP4 POP PUSH2 0x2587 DUP4 PUSH2 0x2523 JUMP JUMPDEST DUP1 PUSH1 0x0 JUMPDEST DUP4 DUP2 LT ISZERO PUSH2 0x25B8 JUMPI DUP2 MLOAD PUSH2 0x259F DUP9 DUP3 PUSH2 0x2542 JUMP JUMPDEST SWAP8 POP PUSH2 0x25AA DUP4 PUSH2 0x255A JUMP JUMPDEST SWAP3 POP POP PUSH1 0x1 DUP2 ADD SWAP1 POP PUSH2 0x258B JUMP JUMPDEST POP DUP6 SWAP4 POP POP POP POP SWAP3 SWAP2 POP POP JUMP JUMPDEST PUSH1 0x0 PUSH1 0x20 DUP3 ADD SWAP1 POP DUP2 DUP2 SUB PUSH1 0x0 DUP4 ADD MSTORE PUSH2 0x25DF DUP2 DUP5 PUSH2 0x2567 JUMP JUMPDEST SWAP1 POP SWAP3 SWAP2 POP POP JUMP JUMPDEST PUSH1 0x0 PUSH1 0x40 DUP3 ADD SWAP1 POP PUSH2 0x25FC PUSH1 0x0 DUP4 ADD DUP6 PUSH2 0x228F JUMP JUMPDEST PUSH2 0x2609 PUSH1 0x20 DUP4 ADD DUP5 PUSH2 0x228F JUMP JUMPDEST SWAP4 SWAP3 POP POP POP JUMP JUMPDEST PUSH1 0x0 PUSH1 0x80 DUP3 ADD SWAP1 POP PUSH2 0x2625 PUSH1 0x0 DUP4 ADD DUP8 PUSH2 0x228F JUMP JUMPDEST PUSH2 0x2632 PUSH1 0x20 DUP4 ADD DUP7 PUSH2 0x1F04 JUMP JUMPDEST PUSH2 0x263F PUSH1 0x40 DUP4 ADD DUP6 PUSH2 0x1F04 JUMP JUMPDEST PUSH2 0x264C PUSH1 0x60 DUP4 ADD DUP5 PUSH2 0x1F04 JUMP JUMPDEST SWAP6 SWAP5 POP POP POP POP POP JUMP JUMPDEST PUSH32 0x4E487B7100000000000000000000000000000000000000000000000000000000 PUSH1 0x0 MSTORE PUSH1 0x12 PUSH1 0x4 MSTORE PUSH1 0x24 PUSH1 0x0 REVERT JUMPDEST PUSH1 0x0 PUSH2 0x268F DUP3 PUSH2 0x1EFA JUMP JUMPDEST SWAP2 POP PUSH2 0x269A DUP4 PUSH2 0x1EFA JUMP JUMPDEST SWAP3 POP DUP3 PUSH2 0x26AA JUMPI PUSH2 0x26A9 PUSH2 0x2655 JUMP JUMPDEST JUMPDEST DUP3 DUP3 MOD SWAP1 POP SWAP3 SWAP2 POP POP JUMP JUMPDEST PUSH32 0x4E487B7100000000000000000000000000000000000000000000000000000000 PUSH1 0x0 MSTORE PUSH1 0x11 PUSH1 0x4 MSTORE PUSH1 0x24 PUSH1 0x0 REVERT JUMPDEST PUSH1 0x0 PUSH2 0x26EF DUP3 PUSH2 0x1EFA JUMP JUMPDEST SWAP2 POP PUSH2 0x26FA DUP4 PUSH2 0x1EFA JUMP JUMPDEST SWAP3 POP DUP3 PUSH2 0x270A JUMPI PUSH2 0x2709 PUSH2 0x2655 JUMP JUMPDEST JUMPDEST DUP3 DUP3 DIV SWAP1 POP SWAP3 SWAP2 POP POP JUMP JUMPDEST PUSH1 0x0 PUSH2 0x2720 DUP3 PUSH2 0x1EFA JUMP JUMPDEST SWAP2 POP PUSH2 0x272B DUP4 PUSH2 0x1EFA JUMP JUMPDEST SWAP3 POP DUP3 DUP3 ADD SWAP1 POP DUP1 DUP3 GT ISZERO PUSH2 0x2743 JUMPI PUSH2 0x2742 PUSH2 0x26B5 JUMP JUMPDEST JUMPDEST SWAP3 SWAP2 POP POP JUMP JUMPDEST PUSH1 0x0 PUSH2 0x2754 DUP3 PUSH2 0x1EFA JUMP JUMPDEST SWAP2 POP PUSH32 0xFFFFFFFFFFFFFFFFFFFFFFFFFFFFFFFFFFFFFFFFFFFFFFFFFFFFFFFFFFFFFFFF DUP3 SUB PUSH2 0x2786 JUMPI PUSH2 0x2785 PUSH2 0x26B5 JUMP JUMPDEST JUMPDEST PUSH1 0x1 DUP3 ADD SWAP1 POP SWAP2 SWAP1 POP JUMP JUMPDEST PUSH32 0x4E487B7100000000000000000000000000000000000000000000000000000000 PUSH1 0x0 MSTORE PUSH1 0x32 PUSH1 0x4 MSTORE PUSH1 0x24 PUSH1 0x0 REVERT JUMPDEST PUSH1 0x0 PUSH2 0x27CB DUP3 PUSH2 0x1EFA JUMP JUMPDEST SWAP2 POP PUSH2 0x27D6 DUP4 PUSH2 0x1EFA JUMP JUMPDEST SWAP3 POP DUP3 DUP3 MUL PUSH2 0x27E4 DUP2 PUSH2 0x1EFA JUMP JUMPDEST SWAP2 POP DUP3 DUP3 DIV DUP5 EQ DUP4 ISZERO OR PUSH2 0x27FB JUMPI PUSH2 0x27FA PUSH2 0x26B5 JUMP JUMPDEST JUMPDEST POP SWAP3 SWAP2 POP POP JUMP JUMPDEST PUSH1 0x0 PUSH2 0x280D DUP3 PUSH2 0x1EFA JUMP JUMPDEST SWAP2 POP PUSH2 0x2818 DUP4 PUSH2 0x1EFA JUMP JUMPDEST SWAP3 POP DUP3 DUP3 SUB SWAP1 POP DUP2 DUP2 GT ISZERO PUSH2 0x2830 JUMPI PUSH2 0x282F PUSH2 0x26B5 JUMP JUMPDEST JUMPDEST SWAP3 SWAP2 POP POP JUMP JUMPDEST PUSH1 0x0 PUSH1 0x80 DUP3 ADD SWAP1 POP PUSH2 0x284B PUSH1 0x0 DUP4 ADD DUP8 PUSH2 0x1F04 JUMP JUMPDEST PUSH2 0x2858 PUSH1 0x20 DUP4 ADD DUP7 PUSH2 0x1F04 JUMP JUMPDEST PUSH2 0x2865 PUSH1 0x40 DUP4 ADD DUP6 PUSH2 0x1F04 JUMP JUMPDEST PUSH2 0x2872 PUSH1 0x60 DUP4 ADD DUP5 PUSH2 0x2449 JUMP JUMPDEST SWAP6 SWAP5 POP POP POP POP POP JUMP JUMPDEST PUSH1 0x0 DUP2 SWAP1 POP SWAP2 SWAP1 POP JUMP JUMPDEST PUSH2 0x288E DUP2 PUSH2 0x287B JUMP JUMPDEST DUP3 MSTORE POP POP JUMP JUMPDEST PUSH1 0x0 PUSH8 0xFFFFFFFFFFFFFFFF DUP3 AND SWAP1 POP SWAP2 SWAP1 POP JUMP JUMPDEST PUSH2 0x28B1 DUP2 PUSH2 0x2894 JUMP JUMPDEST DUP3 MSTORE POP POP JUMP JUMPDEST PUSH1 0x0 PUSH2 0xFFFF DUP3 AND SWAP1 POP SWAP2 SWAP1 POP JUMP JUMPDEST PUSH2 0x28CE DUP2 PUSH2 0x28B7 JUMP JUMPDEST DUP3 MSTORE POP POP JUMP JUMPDEST PUSH1 0x0 PUSH4 0xFFFFFFFF DUP3 AND SWAP1 POP SWAP2 SWAP1 POP JUMP JUMPDEST PUSH2 0x28ED DUP2 PUSH2 0x28D4 JUMP JUMPDEST DUP3 MSTORE POP POP JUMP JUMPDEST PUSH1 0x0 PUSH1 0xA0 DUP3 ADD SWAP1 POP PUSH2 0x2908 PUSH1 0x0 DUP4 ADD DUP9 PUSH2 0x2885 JUMP JUMPDEST PUSH2 0x2915 PUSH1 0x20 DUP4 ADD DUP8 PUSH2 0x28A8 JUMP JUMPDEST PUSH2 0x2922 PUSH1 0x40 DUP4 ADD DUP7 PUSH2 0x28C5 JUMP JUMPDEST PUSH2 0x292F PUSH1 0x60 DUP4 ADD DUP6 PUSH2 0x28E4 JUMP JUMPDEST PUSH2 0x293C PUSH1 0x80 DUP4 ADD DUP5 PUSH2 0x28E4 JUMP JUMPDEST SWAP7 SWAP6 POP POP POP POP POP POP JUMP JUMPDEST PUSH1 0x0 DUP2 MLOAD SWAP1 POP PUSH2 0x2955 DUP2 PUSH2 0x1FD4 JUMP JUMPDEST SWAP3 SWAP2 POP POP JUMP JUMPDEST PUSH1 0x0 PUSH1 0x20 DUP3 DUP5 SUB SLT ISZERO PUSH2 0x2971 JUMPI PUSH2 0x2970 PUSH2 0x1FCA JUMP JUMPDEST JUMPDEST PUSH1 0x0 PUSH2 0x297F DUP5 DUP3 DUP6 ADD PUSH2 0x2946 JUMP JUMPDEST SWAP2 POP POP SWAP3 SWAP2 POP POP JUMP JUMPDEST PUSH1 0x0 DUP2 SWAP1 POP SWAP3 SWAP2 POP POP JUMP JUMPDEST POP JUMP JUMPDEST PUSH1 0x0 PUSH2 0x29A3 PUSH1 0x0 DUP4 PUSH2 0x2988 JUMP JUMPDEST SWAP2 POP PUSH2 0x29AE DUP3 PUSH2 0x2993 JUMP JUMPDEST PUSH1 0x0 DUP3 ADD SWAP1 POP SWAP2 SWAP1 POP JUMP JUMPDEST PUSH1 0x0 PUSH2 0x29C4 DUP3 PUSH2 0x2996 JUMP JUMPDEST SWAP2 POP DUP2 SWAP1 POP SWAP2 SWAP1 POP JUMP INVALID LOG2 PUSH5 0x6970667358 0x22 SLT KECCAK256 ADDRESS CALL 0xBF STOP 0x5C LT 0xDC 0x1F PUSH5 0x956F529505 0xB6 CALLCODE DUP3 SHR DUP11 0xE2 BASEFEE 0xE LOG0 0xB0 0xAD MLOAD 0xA7 LOG4 0xB8 DUP12 0xE2 CODECOPY PUSH5 0x736F6C6343 STOP ADDMOD EQ STOP CALLER "},"gasEstimates":{"creation":{"codeDepositCost":"2151200","executionCost":"infinite","totalCost":"infinite"},"external":{"changeInterval(uint256)":"infinite","checkUpkeep(bytes)":"infinite","endRaffle()":"infinite","enterRaffle()":"infinite","getEntranceFee()":"infinite","getHouseFee()":"infinite","getInterval()":"2482","getLastTimeStamp()":"2526","getNumOfUniquePlayers()":"2547","getNumWords()":"432","getNumberOfTickets()":"2512","getPlayer(uint256)":"5011","getPlayers()":"infinite","getRaffleState()":"2614","getRecentWinner()":"2567","getRecentWinningAmount()":"2482","getRequestConfirmations()":"476","getTicketsEnteredByPlayer(address)":"2908","owner()":"2655","performUpkeep(bytes)":"infinite","rawFulfillRandomWords(uint256,uint256[])":"infinite","refundAll()":"infinite","renounceOwnership()":"infinite","startRaffle()":"infinite","transferOwnership(address)":"infinite"},"internal":{"fulfillRandomWords(uint256,uint256[] memory)":"infinite","payTo(address,uint256)":"infinite"}},"methodIdentifiers":{"changeInterval(uint256)":"63c75607","checkUpkeep(bytes)":"6e04ff0d","endRaffle()":"ee095c0e","enterRaffle()":"2cfcc539","getEntranceFee()":"09bc33a7","getHouseFee()":"54d2a34a","getInterval()":"91ad27b4","getLastTimeStamp()":"c1c244e8","getNumOfUniquePlayers()":"f57f0180","getNumWords()":"53a2c19a","getNumberOfTickets()":"9582260a","getPlayer(uint256)":"e55ae4e8","getPlayers()":"8b5b9ccc","getRaffleState()":"115cbaf5","getRecentWinner()":"473f1ddc","getRecentWinningAmount()":"697237f6","getRequestConfirmations()":"5f1b0fd8","getTicketsEnteredByPlayer(address)":"4d6ea85d","owner()":"8da5cb5b","performUpkeep(bytes)":"4585e33b","rawFulfillRandomWords(uint256,uint256[])":"1fe543e3","refundAll()":"38e771ab","renounceOwnership()":"715018a6","startRaffle()":"242284f1","transferOwnership(address)":"f2fde38b"}},"storageLayout":{"storage":[{"astId":1404,"contract":"contracts/Raffle.sol:Raffle","label":"_owner","offset":0,"slot":"0","type":"t_address"},{"astId":1649,"contract":"contracts/Raffle.sol:Raffle","label":"i_interval","offset":0,"slot":"1","type":"t_uint256"},{"astId":1655,"contract":"contracts/Raffle.sol:Raffle","label":"s_lastTimeStamp","offset":0,"slot":"2","type":"t_uint256"},{"astId":1657,"contract":"contracts/Raffle.sol:Raffle","label":"s_recentWinner","offset":0,"slot":"3","type":"t_address"},{"astId":1659,"contract":"contracts/Raffle.sol:Raffle","label":"s_recentWinningAmount","offset":0,"slot":"4","type":"t_uint256"},{"astId":1662,"contract":"contracts/Raffle.sol:Raffle","label":"s_players","offset":0,"slot":"5","type":"t_array(t_address)dyn_storage"},{"astId":1665,"contract":"contracts/Raffle.sol:Raffle","label":"s_raffleState","offset":0,"slot":"6","type":"t_enum(RaffleState)1632"},{"astId":1669,"contract":"contracts/Raffle.sol:Raffle","label":"s_ticketsEntered","offset":0,"slot":"7","type":"t_mapping(t_address,t_uint256)"},{"astId":1673,"contract":"contracts/Raffle.sol:Raffle","label":"s_uniquePlayers","offset":0,"slot":"8","type":"t_mapping(t_address,t_bool)"},{"astId":1675,"contract":"contracts/Raffle.sol:Raffle","label":"s_uniquePlayerCnt","offset":0,"slot":"9","type":"t_uint256"}],"types":{"t_address":{"encoding":"inplace","label":"address","numberOfBytes":"20"},"t_array(t_address)dyn_storage":{"base":"t_address","encoding":"dynamic_array","label":"address[]","numberOfBytes":"32"},"t_bool":{"encoding":"inplace","label":"bool","numberOfBytes":"1"},"t_enum(RaffleState)1632":{"encoding":"inplace","label":"enum Raffle.RaffleState","numberOfBytes":"1"},"t_mapping(t_address,t_bool)":{"encoding":"mapping","key":"t_address","label":"mapping(address => bool)","numberOfBytes":"32","value":"t_bool"},"t_mapping(t_address,t_uint256)":{"encoding":"mapping","key":"t_address","label":"mapping(address => uint256)","numberOfBytes":"32","value":"t_uint256"},"t_uint256":{"encoding":"inplace","label":"uint256","numberOfBytes":"32"}}},"userdoc":{"kind":"user","methods":{},"notice":"This contract is for creating a sample raffle contract","version":1}}}}