{
  "_format": "hh-sol-artifact-1",
  "contractName": "Raffle",
  "sourceName": "contracts/Raffle.sol",
  "abi": [
    {
      "inputs": [
        {
          "internalType": "address",
          "name": "vrfCoordinatorV2",
          "type": "address"
        },
        {
          "internalType": "uint64",
          "name": "subscriptionId",
          "type": "uint64"
        },
        {
          "internalType": "bytes32",
          "name": "gasLane",
          "type": "bytes32"
        },
        {
          "internalType": "uint256",
          "name": "interval",
          "type": "uint256"
        },
        {
          "internalType": "uint256",
          "name": "entranceFee",
          "type": "uint256"
        },
        {
          "internalType": "uint256",
          "name": "houseFeePct",
          "type": "uint256"
        },
        {
          "internalType": "uint32",
          "name": "callbackGasLimit",
          "type": "uint32"
        }
      ],
      "stateMutability": "nonpayable",
      "type": "constructor"
    },
    {
      "inputs": [
        {
          "internalType": "address",
          "name": "have",
          "type": "address"
        },
        {
          "internalType": "address",
          "name": "want",
          "type": "address"
        }
      ],
      "name": "OnlyCoordinatorCanFulfill",
      "type": "error"
    },
    {
      "inputs": [
        {
          "internalType": "address",
          "name": "owner",
          "type": "address"
        }
      ],
      "name": "OwnableInvalidOwner",
      "type": "error"
    },
    {
      "inputs": [
        {
          "internalType": "address",
          "name": "account",
          "type": "address"
        }
      ],
      "name": "OwnableUnauthorizedAccount",
      "type": "error"
    },
    {
      "inputs": [],
      "name": "Raffle__InvalidEntranceFee",
      "type": "error"
    },
    {
      "inputs": [],
      "name": "Raffle__RaffleNotOpen",
      "type": "error"
    },
    {
      "inputs": [],
      "name": "Raffle__TransferFailed",
      "type": "error"
    },
    {
      "inputs": [
        {
          "internalType": "uint256",
          "name": "raffleState",
          "type": "uint256"
        }
      ],
      "name": "Raffle__UnableToChangeInterval",
      "type": "error"
    },
    {
      "inputs": [
        {
          "internalType": "address",
          "name": "owner",
          "type": "address"
        },
        {
          "internalType": "uint256",
          "name": "currentBalance",
          "type": "uint256"
        },
        {
          "internalType": "uint256",
          "name": "numPlayers",
          "type": "uint256"
        },
        {
          "internalType": "uint256",
          "name": "raffleState",
          "type": "uint256"
        }
      ],
      "name": "Raffle__UnableToEnd",
      "type": "error"
    },
    {
      "inputs": [
        {
          "internalType": "address",
          "name": "owner",
          "type": "address"
        },
        {
          "internalType": "uint256",
          "name": "currentBalance",
          "type": "uint256"
        },
        {
          "internalType": "uint256",
          "name": "numPlayers",
          "type": "uint256"
        },
        {
          "internalType": "uint256",
          "name": "raffleState",
          "type": "uint256"
        }
      ],
      "name": "Raffle__UnableToRefund",
      "type": "error"
    },
    {
      "inputs": [
        {
          "internalType": "address",
          "name": "owner",
          "type": "address"
        },
        {
          "internalType": "uint256",
          "name": "currentBalance",
          "type": "uint256"
        },
        {
          "internalType": "uint256",
          "name": "numPlayers",
          "type": "uint256"
        },
        {
          "internalType": "uint256",
          "name": "raffleState",
          "type": "uint256"
        }
      ],
      "name": "Raffle__UnableToStart",
      "type": "error"
    },
    {
      "inputs": [
        {
          "internalType": "uint256",
          "name": "currentBalance",
          "type": "uint256"
        },
        {
          "internalType": "uint256",
          "name": "numPlayers",
          "type": "uint256"
        },
        {
          "internalType": "uint256",
          "name": "raffleState",
          "type": "uint256"
        },
        {
          "internalType": "bool",
          "name": "hasPastInterval",
          "type": "bool"
        }
      ],
      "name": "Raffle__UpkeepNotNeeded",
      "type": "error"
    },
    {
      "anonymous": false,
      "inputs": [
        {
          "indexed": true,
          "internalType": "address",
          "name": "previousOwner",
          "type": "address"
        },
        {
          "indexed": true,
          "internalType": "address",
          "name": "newOwner",
          "type": "address"
        }
      ],
      "name": "OwnershipTransferred",
      "type": "event"
    },
    {
      "anonymous": false,
      "inputs": [
        {
          "indexed": true,
          "internalType": "enum Raffle.RaffleState",
          "name": "newState",
          "type": "uint8"
        }
      ],
      "name": "RaffleEnd",
      "type": "event"
    },
    {
      "anonymous": false,
      "inputs": [
        {
          "indexed": true,
          "internalType": "address",
          "name": "player",
          "type": "address"
        }
      ],
      "name": "RaffleEnter",
      "type": "event"
    },
    {
      "anonymous": false,
      "inputs": [
        {
          "indexed": true,
          "internalType": "uint256",
          "name": "timestamp",
          "type": "uint256"
        }
      ],
      "name": "RaffleReset",
      "type": "event"
    },
    {
      "anonymous": false,
      "inputs": [
        {
          "indexed": true,
          "internalType": "uint256",
          "name": "requestId",
          "type": "uint256"
        }
      ],
      "name": "RequestedRaffleWinner",
      "type": "event"
    },
    {
      "anonymous": false,
      "inputs": [
        {
          "indexed": true,
          "internalType": "address",
          "name": "player",
          "type": "address"
        }
      ],
      "name": "WinnerPicked",
      "type": "event"
    },
    {
      "inputs": [
        {
          "internalType": "uint256",
          "name": "newInterval",
          "type": "uint256"
        }
      ],
      "name": "changeInterval",
      "outputs": [],
      "stateMutability": "nonpayable",
      "type": "function"
    },
    {
      "inputs": [
        {
          "internalType": "bytes",
          "name": "",
          "type": "bytes"
        }
      ],
      "name": "checkUpkeep",
      "outputs": [
        {
          "internalType": "bool",
          "name": "upkeepNeeded",
          "type": "bool"
        },
        {
          "internalType": "bytes",
          "name": "",
          "type": "bytes"
        }
      ],
      "stateMutability": "view",
      "type": "function"
    },
    {
      "inputs": [],
      "name": "endRaffle",
      "outputs": [],
      "stateMutability": "nonpayable",
      "type": "function"
    },
    {
      "inputs": [],
      "name": "enterRaffle",
      "outputs": [],
      "stateMutability": "payable",
      "type": "function"
    },
    {
      "inputs": [],
      "name": "getEntranceFee",
      "outputs": [
        {
          "internalType": "uint256",
          "name": "",
          "type": "uint256"
        }
      ],
      "stateMutability": "view",
      "type": "function"
    },
    {
      "inputs": [],
      "name": "getHouseFee",
      "outputs": [
        {
          "internalType": "uint256",
          "name": "",
          "type": "uint256"
        }
      ],
      "stateMutability": "view",
      "type": "function"
    },
    {
      "inputs": [],
      "name": "getInterval",
      "outputs": [
        {
          "internalType": "uint256",
          "name": "",
          "type": "uint256"
        }
      ],
      "stateMutability": "view",
      "type": "function"
    },
    {
      "inputs": [],
      "name": "getLastTimeStamp",
      "outputs": [
        {
          "internalType": "uint256",
          "name": "",
          "type": "uint256"
        }
      ],
      "stateMutability": "view",
      "type": "function"
    },
    {
      "inputs": [],
      "name": "getNumOfUniquePlayers",
      "outputs": [
        {
          "internalType": "uint256",
          "name": "",
          "type": "uint256"
        }
      ],
      "stateMutability": "view",
      "type": "function"
    },
    {
      "inputs": [],
      "name": "getNumWords",
      "outputs": [
        {
          "internalType": "uint256",
          "name": "",
          "type": "uint256"
        }
      ],
      "stateMutability": "pure",
      "type": "function"
    },
    {
      "inputs": [],
      "name": "getNumberOfTickets",
      "outputs": [
        {
          "internalType": "uint256",
          "name": "",
          "type": "uint256"
        }
      ],
      "stateMutability": "view",
      "type": "function"
    },
    {
      "inputs": [
        {
          "internalType": "uint256",
          "name": "index",
          "type": "uint256"
        }
      ],
      "name": "getPlayer",
      "outputs": [
        {
          "internalType": "address",
          "name": "",
          "type": "address"
        }
      ],
      "stateMutability": "view",
      "type": "function"
    },
    {
      "inputs": [],
      "name": "getPlayers",
      "outputs": [
        {
          "internalType": "address[]",
          "name": "",
          "type": "address[]"
        }
      ],
      "stateMutability": "view",
      "type": "function"
    },
    {
      "inputs": [],
      "name": "getRaffleState",
      "outputs": [
        {
          "internalType": "enum Raffle.RaffleState",
          "name": "",
          "type": "uint8"
        }
      ],
      "stateMutability": "view",
      "type": "function"
    },
    {
      "inputs": [],
      "name": "getRecentWinner",
      "outputs": [
        {
          "internalType": "address",
          "name": "",
          "type": "address"
        }
      ],
      "stateMutability": "view",
      "type": "function"
    },
    {
      "inputs": [],
      "name": "getRecentWinningAmount",
      "outputs": [
        {
          "internalType": "uint256",
          "name": "",
          "type": "uint256"
        }
      ],
      "stateMutability": "view",
      "type": "function"
    },
    {
      "inputs": [],
      "name": "getRequestConfirmations",
      "outputs": [
        {
          "internalType": "uint256",
          "name": "",
          "type": "uint256"
        }
      ],
      "stateMutability": "pure",
      "type": "function"
    },
    {
      "inputs": [
        {
          "internalType": "address",
          "name": "player",
          "type": "address"
        }
      ],
      "name": "getTicketsEnteredByPlayer",
      "outputs": [
        {
          "internalType": "uint256",
          "name": "",
          "type": "uint256"
        }
      ],
      "stateMutability": "view",
      "type": "function"
    },
    {
      "inputs": [],
      "name": "owner",
      "outputs": [
        {
          "internalType": "address",
          "name": "",
          "type": "address"
        }
      ],
      "stateMutability": "view",
      "type": "function"
    },
    {
      "inputs": [
        {
          "internalType": "bytes",
          "name": "",
          "type": "bytes"
        }
      ],
      "name": "performUpkeep",
      "outputs": [],
      "stateMutability": "nonpayable",
      "type": "function"
    },
    {
      "inputs": [
        {
          "internalType": "uint256",
          "name": "requestId",
          "type": "uint256"
        },
        {
          "internalType": "uint256[]",
          "name": "randomWords",
          "type": "uint256[]"
        }
      ],
      "name": "rawFulfillRandomWords",
      "outputs": [],
      "stateMutability": "nonpayable",
      "type": "function"
    },
    {
      "inputs": [],
      "name": "refundAll",
      "outputs": [],
      "stateMutability": "nonpayable",
      "type": "function"
    },
    {
      "inputs": [],
      "name": "renounceOwnership",
      "outputs": [],
      "stateMutability": "nonpayable",
      "type": "function"
    },
    {
      "inputs": [],
      "name": "startRaffle",
      "outputs": [],
      "stateMutability": "nonpayable",
      "type": "function"
    },
    {
      "inputs": [
        {
          "internalType": "address",
          "name": "newOwner",
          "type": "address"
        }
      ],
      "name": "transferOwnership",
      "outputs": [],
      "stateMutability": "nonpayable",
      "type": "function"
    }
  ],
  "bytecode": "0x6101606040523480156200001257600080fd5b5060405162002f7a38038062002f7a8339818101604052810190620000389190620003e8565b8633600073ffffffffffffffffffffffffffffffffffffffff168173ffffffffffffffffffffffffffffffffffffffff1603620000af5760006040517f1e4fbdf7000000000000000000000000000000000000000000000000000000008152600401620000a69190620004ac565b60405180910390fd5b620000c081620001be60201b60201c565b508073ffffffffffffffffffffffffffffffffffffffff1660808173ffffffffffffffffffffffffffffffffffffffff1681525050508673ffffffffffffffffffffffffffffffffffffffff1660a08173ffffffffffffffffffffffffffffffffffffffff16815250508567ffffffffffffffff1660c08167ffffffffffffffff16815250508460e08181525050836001819055508261012081815250508161014081815250508063ffffffff166101008163ffffffff16815250506000600660006101000a81548160ff02191690836002811115620001a557620001a4620004c9565b5b02179055504260028190555050505050505050620004f8565b60008060009054906101000a900473ffffffffffffffffffffffffffffffffffffffff169050816000806101000a81548173ffffffffffffffffffffffffffffffffffffffff021916908373ffffffffffffffffffffffffffffffffffffffff1602179055508173ffffffffffffffffffffffffffffffffffffffff168173ffffffffffffffffffffffffffffffffffffffff167f8be0079c531659141344cd1fd0a4f28419497f9722a3daafe3b4186f6b6457e060405160405180910390a35050565b600080fd5b600073ffffffffffffffffffffffffffffffffffffffff82169050919050565b6000620002b48262000287565b9050919050565b620002c681620002a7565b8114620002d257600080fd5b50565b600081519050620002e681620002bb565b92915050565b600067ffffffffffffffff82169050919050565b6200030b81620002ec565b81146200031757600080fd5b50565b6000815190506200032b8162000300565b92915050565b6000819050919050565b620003468162000331565b81146200035257600080fd5b50565b60008151905062000366816200033b565b92915050565b6000819050919050565b62000381816200036c565b81146200038d57600080fd5b50565b600081519050620003a18162000376565b92915050565b600063ffffffff82169050919050565b620003c281620003a7565b8114620003ce57600080fd5b50565b600081519050620003e281620003b7565b92915050565b600080600080600080600060e0888a0312156200040a576200040962000282565b5b60006200041a8a828b01620002d5565b97505060206200042d8a828b016200031a565b9650506040620004408a828b0162000355565b9550506060620004538a828b0162000390565b9450506080620004668a828b0162000390565b93505060a0620004798a828b0162000390565b92505060c06200048c8a828b01620003d1565b91505092959891949750929550565b620004a681620002a7565b82525050565b6000602082019050620004c360008301846200049b565b92915050565b7f4e487b7100000000000000000000000000000000000000000000000000000000600052602160045260246000fd5b60805160a05160c05160e051610100516101205161014051612a0462000576600039600081816114030152611ba90152600081816105600152818161078a0152818161085c0152610c18015260006112c30152600061127f015260006112a00152600061124301526000818161059d01526105f10152612a046000f3fe6080604052600436106101665760003560e01c806363c75607116100d157806391ad27b41161008a578063e55ae4e811610064578063e55ae4e8146104b4578063ee095c0e146104f1578063f2fde38b14610508578063f57f01801461053157610166565b806391ad27b4146104335780639582260a1461045e578063c1c244e81461048957610166565b806363c7560714610334578063697237f61461035d5780636e04ff0d14610388578063715018a6146103c65780638b5b9ccc146103dd5780638da5cb5b1461040857610166565b80634585e33b116101235780634585e33b14610222578063473f1ddc1461024b5780634d6ea85d1461027657806353a2c19a146102b357806354d2a34a146102de5780635f1b0fd81461030957610166565b806309bc33a71461016b578063115cbaf5146101965780631fe543e3146101c1578063242284f1146101ea5780632cfcc5391461020157806338e771ab1461020b575b600080fd5b34801561017757600080fd5b5061018061055c565b60405161018d9190611f13565b60405180910390f35b3480156101a257600080fd5b506101ab610584565b6040516101b89190611fa5565b60405180910390f35b3480156101cd57600080fd5b506101e860048036038101906101e39190612159565b61059b565b005b3480156101f657600080fd5b506101ff61065b565b005b610209610786565b005b34801561021757600080fd5b50610220610a68565b005b34801561022e57600080fd5b5061024960048036038101906102449190612210565b610e95565b005b34801561025757600080fd5b5061026061137d565b60405161026d919061229e565b60405180910390f35b34801561028257600080fd5b5061029d600480360381019061029891906122e5565b6113a7565b6040516102aa9190611f13565b60405180910390f35b3480156102bf57600080fd5b506102c86113f0565b6040516102d59190611f13565b60405180910390f35b3480156102ea57600080fd5b506102f36113ff565b6040516103009190611f13565b60405180910390f35b34801561031557600080fd5b5061031e611427565b60405161032b9190611f13565b60405180910390f35b34801561034057600080fd5b5061035b60048036038101906103569190612312565b611434565b005b34801561036957600080fd5b506103726114de565b60405161037f9190611f13565b60405180910390f35b34801561039457600080fd5b506103af60048036038101906103aa91906123f4565b6114e8565b6040516103bd9291906124d7565b60405180910390f35b3480156103d257600080fd5b506103db61158a565b005b3480156103e957600080fd5b506103f261159e565b6040516103ff91906125c5565b60405180910390f35b34801561041457600080fd5b5061041d61162c565b60405161042a919061229e565b60405180910390f35b34801561043f57600080fd5b50610448611655565b6040516104559190611f13565b60405180910390f35b34801561046a57600080fd5b5061047361165f565b6040516104809190611f13565b60405180910390f35b34801561049557600080fd5b5061049e61166c565b6040516104ab9190611f13565b60405180910390f35b3480156104c057600080fd5b506104db60048036038101906104d69190612312565b611676565b6040516104e8919061229e565b60405180910390f35b3480156104fd57600080fd5b506105066116be565b005b34801561051457600080fd5b5061052f600480360381019061052a91906122e5565b611802565b005b34801561053d57600080fd5b50610546611888565b6040516105539190611f13565b60405180910390f35b60007f0000000000000000000000000000000000000000000000000000000000000000905090565b6000600660009054906101000a900460ff16905090565b7f000000000000000000000000000000000000000000000000000000000000000073ffffffffffffffffffffffffffffffffffffffff163373ffffffffffffffffffffffffffffffffffffffff161461064d57337f00000000000000000000000000000000000000000000000000000000000000006040517f1cf993f40000000000000000000000000000000000000000000000000000000081526004016106449291906125e7565b60405180910390fd5b6106578282611892565b5050565b610663611c58565b60028081111561067657610675611f2e565b5b600660009054906101000a900460ff16600281111561069857610697611f2e565b5b1415806106aa57506000600580549050115b806106b55750600047115b15610723573347600580549050600660009054906101000a900460ff1660028111156106e4576106e3611f2e565b5b6040517f989584f800000000000000000000000000000000000000000000000000000000815260040161071a9493929190612610565b60405180910390fd5b6000600660006101000a81548160ff0219169083600281111561074957610748611f2e565b5b0217905550426002819055506002547f55474e5a13c390e9594ab9c0e33694ad0c2027fa1555c1cb83c9012e6a464ba760405160405180910390a2565b60007f0000000000000000000000000000000000000000000000000000000000000000346107b49190612684565b146107eb576040517fa11b52c900000000000000000000000000000000000000000000000000000000815260040160405180910390fd5b600060028111156107ff576107fe611f2e565b5b600660009054906101000a900460ff16600281111561082157610820611f2e565b5b14610858576040517fd24a271400000000000000000000000000000000000000000000000000000000815260040160405180910390fd5b60007f00000000000000000000000000000000000000000000000000000000000000003461088691906126e4565b905080600760003373ffffffffffffffffffffffffffffffffffffffff1673ffffffffffffffffffffffffffffffffffffffff16815260200190815260200160002060008282546108d79190612715565b92505081905550600860003373ffffffffffffffffffffffffffffffffffffffff1673ffffffffffffffffffffffffffffffffffffffff16815260200190815260200160002060009054906101000a900460ff166109a0576001600860003373ffffffffffffffffffffffffffffffffffffffff1673ffffffffffffffffffffffffffffffffffffffff16815260200190815260200160002060006101000a81548160ff0219169083151502179055506009600081548092919061099a90612749565b91905055505b60005b81811015610a21576005339080600181540180825580915050600190039060005260206000200160009091909190916101000a81548173ffffffffffffffffffffffffffffffffffffffff021916908373ffffffffffffffffffffffffffffffffffffffff1602179055508080610a1990612749565b9150506109a3565b503373ffffffffffffffffffffffffffffffffffffffff167f0805e1d667bddb8a95f0f09880cf94f403fb596ce79928d9f29b74203ba284d460405160405180910390a250565b610a70611c58565b60016002811115610a8457610a83611f2e565b5b600660009054906101000a900460ff166002811115610aa657610aa5611f2e565b5b141580610ab857506000600580549050145b80610ac35750600047145b15610b31573347600580549050600660009054906101000a900460ff166002811115610af257610af1611f2e565b5b6040517f92055084000000000000000000000000000000000000000000000000000000008152600401610b289493929190612610565b60405180910390fd5b60005b600580549050811015610db1576008600060058381548110610b5957610b58612791565b5b9060005260206000200160009054906101000a900473ffffffffffffffffffffffffffffffffffffffff1673ffffffffffffffffffffffffffffffffffffffff1673ffffffffffffffffffffffffffffffffffffffff16815260200190815260200160002060009054906101000a900460ff1615610d9e57600060058281548110610be757610be6612791565b5b9060005260206000200160009054906101000a900473ffffffffffffffffffffffffffffffffffffffff16905060007f0000000000000000000000000000000000000000000000000000000000000000600760008473ffffffffffffffffffffffffffffffffffffffff1673ffffffffffffffffffffffffffffffffffffffff16815260200190815260200160002054610c8191906127c0565b9050610c8d8282611cdf565b6008600060058581548110610ca557610ca4612791565b5b9060005260206000200160009054906101000a900473ffffffffffffffffffffffffffffffffffffffff1673ffffffffffffffffffffffffffffffffffffffff1673ffffffffffffffffffffffffffffffffffffffff16815260200190815260200160002060006101000a81549060ff02191690556007600060058581548110610d3257610d31612791565b5b9060005260206000200160009054906101000a900473ffffffffffffffffffffffffffffffffffffffff1673ffffffffffffffffffffffffffffffffffffffff1673ffffffffffffffffffffffffffffffffffffffff1681526020019081526020016000206000905550505b8080610da990612749565b915050610b34565b50600067ffffffffffffffff811115610dcd57610dcc612016565b5b604051908082528060200260200182016040528015610dfb5781602001602082028036833780820191505090505b5060059080519060200190610e11929190611e53565b5060006009819055506002600660006101000a81548160ff02191690836002811115610e4057610e3f611f2e565b5b0217905550600660009054906101000a900460ff166002811115610e6757610e66611f2e565b5b7fe80780b6efdb52ab57a7f583fdfc286b925caddda150dca6a95baa3f0cfb591c60405160405180910390a2565b6000610eaf604051806020016040528060008152506114e8565b50905080610f315747600580549050600660009054906101000a900460ff166002811115610ee057610edf611f2e565b5b60015460025442610ef19190612802565b116040517fa8dbacda000000000000000000000000000000000000000000000000000000008152600401610f289493929190612836565b60405180910390fd5b600060058054905003610f7a57426002819055506002547f55474e5a13c390e9594ab9c0e33694ad0c2027fa1555c1cb83c9012e6a464ba760405160405180910390a250611379565b6001600660006101000a81548160ff02191690836002811115610fa057610f9f611f2e565b5b021790555060016009540361123f576005600081548110610fc457610fc3612791565b5b9060005260206000200160009054906101000a900473ffffffffffffffffffffffffffffffffffffffff16600360006101000a81548173ffffffffffffffffffffffffffffffffffffffff021916908373ffffffffffffffffffffffffffffffffffffffff16021790555060086000600360009054906101000a900473ffffffffffffffffffffffffffffffffffffffff1673ffffffffffffffffffffffffffffffffffffffff1673ffffffffffffffffffffffffffffffffffffffff16815260200190815260200160002060006101000a81549060ff021916905560076000600360009054906101000a900473ffffffffffffffffffffffffffffffffffffffff1673ffffffffffffffffffffffffffffffffffffffff1673ffffffffffffffffffffffffffffffffffffffff16815260200190815260200160002060009055600067ffffffffffffffff8111156111205761111f612016565b5b60405190808252806020026020018201604052801561114e5781602001602082028036833780820191505090505b5060059080519060200190611164929190611e53565b5060006009819055506000600660006101000a81548160ff0219169083600281111561119357611192611f2e565b5b021790555042600281905550476004819055506111d4600360009054906101000a900473ffffffffffffffffffffffffffffffffffffffff16600454611cdf565b600360009054906101000a900473ffffffffffffffffffffffffffffffffffffffff1673ffffffffffffffffffffffffffffffffffffffff167f5b690ec4a06fe979403046eaeea5b3ce38524683c3001f662c8b5a829632f7df60405160405180910390a250611379565b60007f000000000000000000000000000000000000000000000000000000000000000073ffffffffffffffffffffffffffffffffffffffff16635d3b1d307f00000000000000000000000000000000000000000000000000000000000000007f000000000000000000000000000000000000000000000000000000000000000060037f000000000000000000000000000000000000000000000000000000000000000060016040518663ffffffff1660e01b81526004016113049594939291906128f3565b6020604051808303816000875af1158015611323573d6000803e3d6000fd5b505050506040513d601f19601f82011682018060405250810190611347919061295b565b9050807fcd6e45c8998311cab7e9d4385596cac867e20a0587194b954fa3a731c93ce78b60405160405180910390a250505b5050565b6000600360009054906101000a900473ffffffffffffffffffffffffffffffffffffffff16905090565b6000600760008373ffffffffffffffffffffffffffffffffffffffff1673ffffffffffffffffffffffffffffffffffffffff168152602001908152602001600020549050919050565b6000600163ffffffff16905090565b60007f0000000000000000000000000000000000000000000000000000000000000000905090565b6000600361ffff16905090565b61143c611c58565b60028081111561144f5761144e611f2e565b5b600660009054906101000a900460ff16600281111561147157611470611f2e565b5b146114d457600660009054906101000a900460ff16600281111561149857611497611f2e565b5b6040517f66bd08c50000000000000000000000000000000000000000000000000000000081526004016114cb9190611f13565b60405180910390fd5b8060018190555050565b6000600454905090565b60006060600080600281111561150157611500611f2e565b5b600660009054906101000a900460ff16600281111561152357611522611f2e565b5b1490506000600154600254426115399190612802565b1190508180156115465750805b9350836040518060400160405280600381526020017f3078300000000000000000000000000000000000000000000000000000000000815250935093505050915091565b611592611c58565b61159c6000611d87565b565b6060600580548060200260200160405190810160405280929190818152602001828054801561162257602002820191906000526020600020905b8160009054906101000a900473ffffffffffffffffffffffffffffffffffffffff1673ffffffffffffffffffffffffffffffffffffffff16815260200190600101908083116115d8575b5050505050905090565b60008060009054906101000a900473ffffffffffffffffffffffffffffffffffffffff16905090565b6000600154905090565b6000600580549050905090565b6000600254905090565b60006005828154811061168c5761168b612791565b5b9060005260206000200160009054906101000a900473ffffffffffffffffffffffffffffffffffffffff169050919050565b6116c6611c58565b600060028111156116da576116d9611f2e565b5b600660009054906101000a900460ff1660028111156116fc576116fb611f2e565b5b14158061170e57506000600580549050115b806117195750600047115b15611787573347600580549050600660009054906101000a900460ff16600281111561174857611747611f2e565b5b6040517f760415b500000000000000000000000000000000000000000000000000000000815260040161177e9493929190612610565b60405180910390fd5b6002600660006101000a81548160ff021916908360028111156117ad576117ac611f2e565b5b0217905550600660009054906101000a900460ff1660028111156117d4576117d3611f2e565b5b7fe80780b6efdb52ab57a7f583fdfc286b925caddda150dca6a95baa3f0cfb591c60405160405180910390a2565b61180a611c58565b600073ffffffffffffffffffffffffffffffffffffffff168173ffffffffffffffffffffffffffffffffffffffff160361187c5760006040517f1e4fbdf7000000000000000000000000000000000000000000000000000000008152600401611873919061229e565b60405180910390fd5b61188581611d87565b50565b6000600954905090565b6000600580549050826000815181106118ae576118ad612791565b5b60200260200101516118c09190612684565b90506000600582815481106118d8576118d7612791565b5b9060005260206000200160009054906101000a900473ffffffffffffffffffffffffffffffffffffffff16905080600360006101000a81548173ffffffffffffffffffffffffffffffffffffffff021916908373ffffffffffffffffffffffffffffffffffffffff16021790555060005b600580549050811015611b0857600860006005838154811061196e5761196d612791565b5b9060005260206000200160009054906101000a900473ffffffffffffffffffffffffffffffffffffffff1673ffffffffffffffffffffffffffffffffffffffff1673ffffffffffffffffffffffffffffffffffffffff16815260200190815260200160002060009054906101000a900460ff1615611af55760086000600583815481106119fe576119fd612791565b5b9060005260206000200160009054906101000a900473ffffffffffffffffffffffffffffffffffffffff1673ffffffffffffffffffffffffffffffffffffffff1673ffffffffffffffffffffffffffffffffffffffff16815260200190815260200160002060006101000a81549060ff02191690556007600060058381548110611a8b57611a8a612791565b5b9060005260206000200160009054906101000a900473ffffffffffffffffffffffffffffffffffffffff1673ffffffffffffffffffffffffffffffffffffffff1673ffffffffffffffffffffffffffffffffffffffff168152602001908152602001600020600090555b8080611b0090612749565b915050611949565b50600067ffffffffffffffff811115611b2457611b23612016565b5b604051908082528060200260200182016040528015611b525781602001602082028036833780820191505090505b5060059080519060200190611b68929190611e53565b5060006009819055506000600660006101000a81548160ff02191690836002811115611b9757611b96611f2e565b5b021790555042600281905550600060647f000000000000000000000000000000000000000000000000000000000000000047611bd391906127c0565b611bdd91906126e4565b90508047611beb9190612802565b600481905550611c02611bfc61162c565b82611cdf565b611c0e82600454611cdf565b8173ffffffffffffffffffffffffffffffffffffffff167f5b690ec4a06fe979403046eaeea5b3ce38524683c3001f662c8b5a829632f7df60405160405180910390a25050505050565b611c60611e4b565b73ffffffffffffffffffffffffffffffffffffffff16611c7e61162c565b73ffffffffffffffffffffffffffffffffffffffff1614611cdd57611ca1611e4b565b6040517f118cdaa7000000000000000000000000000000000000000000000000000000008152600401611cd4919061229e565b60405180910390fd5b565b60008273ffffffffffffffffffffffffffffffffffffffff1682604051611d05906129b9565b60006040518083038185875af1925050503d8060008114611d42576040519150601f19603f3d011682016040523d82523d6000602084013e611d47565b606091505b5050905080611d82576040517fa1d04b3900000000000000000000000000000000000000000000000000000000815260040160405180910390fd5b505050565b60008060009054906101000a900473ffffffffffffffffffffffffffffffffffffffff169050816000806101000a81548173ffffffffffffffffffffffffffffffffffffffff021916908373ffffffffffffffffffffffffffffffffffffffff1602179055508173ffffffffffffffffffffffffffffffffffffffff168173ffffffffffffffffffffffffffffffffffffffff167f8be0079c531659141344cd1fd0a4f28419497f9722a3daafe3b4186f6b6457e060405160405180910390a35050565b600033905090565b828054828255906000526020600020908101928215611ecc579160200282015b82811115611ecb5782518260006101000a81548173ffffffffffffffffffffffffffffffffffffffff021916908373ffffffffffffffffffffffffffffffffffffffff16021790555091602001919060010190611e73565b5b509050611ed99190611edd565b5090565b5b80821115611ef6576000816000905550600101611ede565b5090565b6000819050919050565b611f0d81611efa565b82525050565b6000602082019050611f286000830184611f04565b92915050565b7f4e487b7100000000000000000000000000000000000000000000000000000000600052602160045260246000fd5b60038110611f6e57611f6d611f2e565b5b50565b6000819050611f7f82611f5d565b919050565b6000611f8f82611f71565b9050919050565b611f9f81611f84565b82525050565b6000602082019050611fba6000830184611f96565b92915050565b6000604051905090565b600080fd5b600080fd5b611fdd81611efa565b8114611fe857600080fd5b50565b600081359050611ffa81611fd4565b92915050565b600080fd5b6000601f19601f8301169050919050565b7f4e487b7100000000000000000000000000000000000000000000000000000000600052604160045260246000fd5b61204e82612005565b810181811067ffffffffffffffff8211171561206d5761206c612016565b5b80604052505050565b6000612080611fc0565b905061208c8282612045565b919050565b600067ffffffffffffffff8211156120ac576120ab612016565b5b602082029050602081019050919050565b600080fd5b60006120d56120d084612091565b612076565b905080838252602082019050602084028301858111156120f8576120f76120bd565b5b835b81811015612121578061210d8882611feb565b8452602084019350506020810190506120fa565b5050509392505050565b600082601f8301126121405761213f612000565b5b81356121508482602086016120c2565b91505092915050565b600080604083850312156121705761216f611fca565b5b600061217e85828601611feb565b925050602083013567ffffffffffffffff81111561219f5761219e611fcf565b5b6121ab8582860161212b565b9150509250929050565b600080fd5b60008083601f8401126121d0576121cf612000565b5b8235905067ffffffffffffffff8111156121ed576121ec6121b5565b5b602083019150836001820283011115612209576122086120bd565b5b9250929050565b6000806020838503121561222757612226611fca565b5b600083013567ffffffffffffffff81111561224557612244611fcf565b5b612251858286016121ba565b92509250509250929050565b600073ffffffffffffffffffffffffffffffffffffffff82169050919050565b60006122888261225d565b9050919050565b6122988161227d565b82525050565b60006020820190506122b3600083018461228f565b92915050565b6122c28161227d565b81146122cd57600080fd5b50565b6000813590506122df816122b9565b92915050565b6000602082840312156122fb576122fa611fca565b5b6000612309848285016122d0565b91505092915050565b60006020828403121561232857612327611fca565b5b600061233684828501611feb565b91505092915050565b600080fd5b600067ffffffffffffffff82111561235f5761235e612016565b5b61236882612005565b9050602081019050919050565b82818337600083830152505050565b600061239761239284612344565b612076565b9050828152602081018484840111156123b3576123b261233f565b5b6123be848285612375565b509392505050565b600082601f8301126123db576123da612000565b5b81356123eb848260208601612384565b91505092915050565b60006020828403121561240a57612409611fca565b5b600082013567ffffffffffffffff81111561242857612427611fcf565b5b612434848285016123c6565b91505092915050565b60008115159050919050565b6124528161243d565b82525050565b600081519050919050565b600082825260208201905092915050565b60005b83811015612492578082015181840152602081019050612477565b60008484015250505050565b60006124a982612458565b6124b38185612463565b93506124c3818560208601612474565b6124cc81612005565b840191505092915050565b60006040820190506124ec6000830185612449565b81810360208301526124fe818461249e565b90509392505050565b600081519050919050565b600082825260208201905092915050565b6000819050602082019050919050565b61253c8161227d565b82525050565b600061254e8383612533565b60208301905092915050565b6000602082019050919050565b600061257282612507565b61257c8185612512565b935061258783612523565b8060005b838110156125b857815161259f8882612542565b97506125aa8361255a565b92505060018101905061258b565b5085935050505092915050565b600060208201905081810360008301526125df8184612567565b905092915050565b60006040820190506125fc600083018561228f565b612609602083018461228f565b9392505050565b6000608082019050612625600083018761228f565b6126326020830186611f04565b61263f6040830185611f04565b61264c6060830184611f04565b95945050505050565b7f4e487b7100000000000000000000000000000000000000000000000000000000600052601260045260246000fd5b600061268f82611efa565b915061269a83611efa565b9250826126aa576126a9612655565b5b828206905092915050565b7f4e487b7100000000000000000000000000000000000000000000000000000000600052601160045260246000fd5b60006126ef82611efa565b91506126fa83611efa565b92508261270a57612709612655565b5b828204905092915050565b600061272082611efa565b915061272b83611efa565b9250828201905080821115612743576127426126b5565b5b92915050565b600061275482611efa565b91507fffffffffffffffffffffffffffffffffffffffffffffffffffffffffffffffff8203612786576127856126b5565b5b600182019050919050565b7f4e487b7100000000000000000000000000000000000000000000000000000000600052603260045260246000fd5b60006127cb82611efa565b91506127d683611efa565b92508282026127e481611efa565b915082820484148315176127fb576127fa6126b5565b5b5092915050565b600061280d82611efa565b915061281883611efa565b92508282039050818111156128305761282f6126b5565b5b92915050565b600060808201905061284b6000830187611f04565b6128586020830186611f04565b6128656040830185611f04565b6128726060830184612449565b95945050505050565b6000819050919050565b61288e8161287b565b82525050565b600067ffffffffffffffff82169050919050565b6128b181612894565b82525050565b600061ffff82169050919050565b6128ce816128b7565b82525050565b600063ffffffff82169050919050565b6128ed816128d4565b82525050565b600060a0820190506129086000830188612885565b61291560208301876128a8565b61292260408301866128c5565b61292f60608301856128e4565b61293c60808301846128e4565b9695505050505050565b60008151905061295581611fd4565b92915050565b60006020828403121561297157612970611fca565b5b600061297f84828501612946565b91505092915050565b600081905092915050565b50565b60006129a3600083612988565b91506129ae82612993565b600082019050919050565b60006129c482612996565b915081905091905056fea264697066735822122030f1bf005c10dc1f64956f529505b6f2821c8ae2480ea0b0ad51a7a4b88be23964736f6c63430008140033",
  "linkReferences": {},
  "deployedLinkReferences": {}
}